:0D3D6C002535642E20005B4449525D0A009D
:073D8F007B007A0079092294
:073D96007B007A007909228D
:08267E008F3F8E3E8D3D8C3C28
:10268600754201854043854144E4789FF608F67813
:102696009DF608F6780AE6B40207781B1213238023
:1026A600087809E6FFE4FCFDFE789912136CAF3F4B
:1026B600AE3EAD3DAC3C789512136C789512132363
:1026C600780DE6F56508E6F5668542678543688513
:1026D6004469123BDE78A5EFF66003022870789D08
:1026E600E6FE08E6FFAB42AA43A944123D0678A1DE
:1026F600EFF664E570030227DDE670030227DD7856
:102706009EE6240BFF18E436FEAB42AA43A9441208
:102716003D0678A3EFF6540E60030227DD78A00687
:10272600E6187001067BFF7A3D796C789FE6F564C2
:1027360008E6F565121835E478A2F678A2E6FFC336
:102746009408501EEF789E26FFE41836FEAB42AA88
:1027560043A944123D0678A4EFF612000378A206B8
:1027660080D978A3E630E43518760878A2E6FFC368
:10277600940B501EEF789E26FFE41836FEAB42AA55
:1027860043A944123D0678A4EFF612000378A20688
:1027960080D97BFF7A3D7972121835803A7F2E12E6
:1027A600000378A2760878A2E6FFC3940B501EEFCA
:1027B600789E26FFE41836FEAB42AA43A944123D92
:1027C6000678A4EFF612000378A20680D97F0D12D0
:1027D60000037F0A120003789E742026F618E4365A
:1027E600F6D308E694FE18E6940140747895121321
:1027F60023EF2401FFE43EFEE43DFDE43CFC789536
:1028060012136C7895121323C3EF953FFFEE953E96
:10281600FEED953DFDEC953CFC789912132FD312F5
:10282600129840307895121323780DE6F56508E680
:10283600F566854267854368854469123BDE78A55F
:10284600EFF66008E4789FF608F608F6E4789DF659
:1028560008F6800C789FE64480F608E6F6E408F66B
:1028660078A1E660030226E48006E4789FF608F67F
:07287600789FE6FE08E6FF73
:01287D002238
:0821A4008F3F8E3E8D3D8C3C07
:1021AC00755701854258854359E4F552F553F5505E
:1021BC00F551F54FF54EF54DF54C780AE6B4020F96
:1021CC00781B1213238F4B8E4A8D498C48800D78C7
:1021DC0009E6FFE48F4BF54AF549F548853F4785FD
:1021EC003E46853D45853C44AF47AE46AD45AC4487
:1021FC00780DE6F56508E6F56685576785586885B8
:10220C005969123BDE8F56E55660030223EFAB573C
:10221C00AA58A959AF51AE50123D068F54E55464DB
:10222C00E5700302235FE554700302235FE551243C
:10223C000BFFE43550FEAB57AA58A959123D068F37
:10224C0055E555540E600302235F0553E5537002A8
:10225C00055265417004E5526540600302235F78C6
:10226C000AE664047065E5512415FFE43550FEABB5
:10227C0057AA58A959123D06E48F4FF54EF54DF566
:10228C004CAE4EAD4DAC4C78081212BC8F4F8E4EEE
:10229C008D4D8C4CE5512414FFE43550FEAB57AA00
:1022AC0058A959123D06E54F4FF54FE54EF54EE551
:1022BC004DF54DE54CF54CAF4FAE4EAD4DFC7808A1
:1022CC001212BC8F4F8E4E8D4D8C4CE551241BFF42
:1022DC00E43550FEAB57AA58A959123D06E54F4FAD
:1022EC00F54FE54EF54EE54DF54DE54CF54CAF4F44
:1022FC00AE4EAD4DFC78081212BC8F4F8E4E8D4DEC
:10230C008C4CE551241AFFE43550FEAB57AA58A962
:10231C0059123D06E54F4FF54FE54EF54EE54DF59F
:10232C004DE54CF54CE551240BFFE43550FEAB5715
:10233C00AA58A959123D068F55E55530E412E54FC0
:10234C00F54FE54EF54EE54DF54DE54C4410F54C8D
:10235C00E4F55474202551F551E43550F550D3E58E
:10236C005194FEE55094014071E5472401F547E492
:10237C003546F546E43545F545E43544F544C3E5C5
:10238C0047953FFFE546953EFEE545953DFDE54409
:10239C00953CFCAB4BAA4AA949A848D312129840C9
:1023AC0036AF47AE46AD45AC44780DE6F56508E66C
:1023BC00F566855767855868855969123BDE8F56D7
:1023CC00E556600CE4F54FF54EF54D754C80F55423
:1023DC00E4F550F5518003E4F554E5546003022212
:1023EC001A800AE4F54FF54EF54D754C80E4FFFE6E
:1023FC00FDFCAB4FAA4EA94DA84CC3121298700904
:10240C00F54FF54EF54D754C80AF4FAE4EAD4DAC16
:01241C004C73
:01241D00229C
:103A5E004C6F636174696E6720426F6F742053659B
:103A6E0063746F722E2E2E0A0D0052656C6174698E
:103A7E00766520536563746F7273203D20256C64E8
:103A8E000A0D004469736B204572726F72210A0D24
:103A9E000046415431362044657465637465642E66
:103AAE002E2E0A0D00464154333220446574656350
:093ABE007465642E2E2E0A0D0021
:093CFD00AB5BAA5CA95DE4FFFECB
:0B3D06005306018F828E83121017FFFE
:013D1100228F
:083C2100AB5BAA5CA95D7E000B
:0A3C29008E618F628B638A648965E7
:103C3300536101E92562F9EA3561FA900001121036
:103C430017FEAA64A965856282856183121017FF36
:013C5300224E
:0A3B2C008B2E8A2F8930AD07AC06FE
:103B3600530401E4787FF608F6AB2EE5302DF9E55F
:103B46002F3CFA900001121017787F760008F6E6EF
:103B5600F8E47980F7E819F7AB2EAA2FA930AE045E
:103B6600AF058F828E83121017FF7E007881EEF6E6
:103B760008EFF6787FE6FE08E64FFF18EEF6FE0839
:023B8600EFF658
:013B8800221A
:0738FF00AB5BAA5CA95DFEB2
:0A3906008E618F628B638A6489650D
:10391000E4F569F568F567F566536101F56AAB632F
:10392000E5652562F9E5643561FAC37403956AFFBC
:10393000E49400FEE92FF9EA3EFA120FFEFBAF69AC
:10394000AE68AD67AC6678081212BC8F698E688D60
:10395000678C66AF03E5694FF569E568F568E5676B
:10396000F567E566F566056AE56AB404B1AF69AE68
:0539700068AD67AC66C4
:01397500222F
:0A3976008E2E8F2F8B308A3189329C
:10398000787F12137800000000532E01E47884F64B
:10399000AB30E532252FF9E531352EFA7884E6FF94
:1039A000C374039FFFE49400FEE92FF9EA3EFA1284
:1039B0000FFE18F6787F12132378081212BC787F56
:1039C00012136C787F12132FC0007883E6FFD000AB
:1039D000EB4FFFEAFEE9FDE8FC787F12136C788478
:0A39E00006E6B404AB787F1213234F
:0139EA0022BA
:04143E008E3C8F3D14
:10144200123D8F8B5E8A5F8960755B01853C5C858E
:101452003D5D7BFF7A3A795E1218357565027566D5
:1014620000855B67855C68855D697F007E007D0025
:101472007C00123BDE123CFDEF64EB6044EF64E95A
:10148200603FAB5BAA5CA95D7FC67E011239068F05
:101492004D8E4C8D4B8C4A756502756600855B6777
:1014A200855C68855D69123BDE7BFF7A3A797885D7
:1014B2004D67854C66854B65854A64121835123C2A
:1014C200FDEF64EB6011EF64E9600C7BFF7A3A791F
:1014D200911218357FF0227F0B123C21AB5EAA5F7E
:1014E200A960900004EE8FF0121138900002E4120D
:1014F2001089900004121100FFAEF0EF64014E60FB
:1015020017AB5EAA5FA9609000027401121044EE4C
:10151200C313FEEF13FF80E3AB5BAA5CA95D7F0DF3
:101522007E00123D06AB5EAA5FA960EF1210777FC4
:101532000E123C218E568F57AB5BAA5CA95D7F10C1
:101542007E00123D068F5AAB5BAA5CA95D7F117EBD
:1015520000123C298E588F59AB5BAA5CA95D7F13A0
:101562007E00123C29E48F418E40F53FF53EFFFE9E
:10157200FDFCAB41AA40A93FA83EC3121298700DD0
:101582007F201238FF8F418E408D3F8C3EAB5BAA8D
:101592005CA95D7F167E00123C29E48F518E50F5C6
:1015A2004FF54EFFFEFDFCAB51AA50A94FA84EC30A
:1015B20012129870227F241238FF8F518E508D4F55
:1015C2008C4EAB5BAA5CA95D7F2C7E001239068F24
:1015D200558E548D538C52AB5EAA5FA96090000465
:1015E200121100FDACF024FFFBEC34FFFAE559AE1A
:1015F200587805C333CE33CED8F92BFFEA3EFE121C
:1016020010ABE4FCFDAB5EAA5FA96090001212125F
:10161200FFAF5AE4FCFDFEAB51AA50A94FA84E12EF
:101622001165A804A905AA06AB07E4FCFDEB255742
:10163200FFEA3556FEED39FDEC38FCAB5EAA5FA938
:101642006090001212133CEF2BFBEE3AFAED39F9DF
:10165200EC38F8C3E5419BF545E5409AF544E53F92
:1016620099F543E53E98F542AB5EAA5FA960120F79
:10167200FEFBE4FAF9F8AF45AE44AD43AC421211B9
:10168200F08F498E488D478C46E557254DFFE5562C
:10169200354CFEE4354BFDE4354AFCAB5EAA5FA94E
:1016A2006090000E1212FF90000E12133CC000C098
:1016B20001C002C003AF5AE4FCFDFEAB51AA50A91F
:1016C2004FA84E121165D003D002D001D000EF2BEB
:1016D200FFEE3AFEED39FDEC38FCAB5EAA5FA96085
:1016E20090001212133CEF2BFFEE3AFEED39FDECA7
:1016F20038FCAB5EAA5FA96090000A1212FFE47F79
:10170200F57EFFFDFCAB49AA48A947A846C31212C1
:1017120098AB5EAA5FA96090000150457402121056
:101722008990000374011210897BFF7A3A799F1223
:101732001835AB5EAA5FA96090000E12133CC00080
:10174200C001C002C003AF5AE4FCFDFEAB51AA5077
:10175200A94FA84E121165D003D002D001D000804B
:1017620055740412108990000374021210897BFFD1
:101772007A3A79B3121835E55524FEFFE55434FF61
:10178200FEE55334FFFDE55234FFFCA804C005C05A
:1017920006C007AB5EAA5FA960120FFEFFE4FCFD64
:1017A200FED003D002D001121165AB5EAA5FA96020
:1017B20090000A12133CEF2BFFEE3AFEED39FDECDE
:1017C20038FCAB5EAA5FA9609000061212FF7F0090
:0117D20022F4
:0836C8008F438E428D418C40BE
:1036D000123D8F8B488A49894AE4FFFEFDFCAB43CB
:1036E000AA42A941A840C31212987016AB48AA4931
:1036F000A94A9000061212CF8F478E468D458C4402
:10370000804FE54324FEFFE54234FFFEE54134FFF0
:10371000FDE54034FFFCA804C005C006C007AB4867
:10372000AA49A94A120FFEFFE4FCFDFED003D00215
:10373000D001121165AB48AA49A94A90000A121398
:103740003CEF2BF547EE3AF546ED39F545EC38F50B
:0937500044AF47AE46AD45AC4460
:01375900224D
:083877008F258E248D238C2285
:10387F00123D968B268A278928E4FFFEFDFCAB2597
:10388F00AA24A923A822C3121298700EAB26AA2726
:10389F00A9289000061212CF804BE52524FEFFE5E4
:1038AF002434FFFEE52334FFFDE52234FFFCA8049A
:1038BF00C005C006C007AB26AA27A928120FFEFF16
:1038CF00E4FCFDFED003D002D001121165AB26AA95
:1038DF0027A92890000A12133CEF2BFFEE3AFEEDBA
:0F38EF0039FDEC38FC787512136C7875121323C1
:0138FE0022A7
:08316B008F258E248D238C2298
:10317300123D968B2B8A2C892D752801852629854E
:10318300272A900003121017FF900002121017C392
:103193009FF9AF25AE24AD23AC22F81212A9A92DB5
:1031A30090000E12133CEF2BFFEE3AFEED39FDECCF
:1031B30038FC787512136C7875121323AB2BAA2C79
:1031C300A92D900004121100F53385F032852834BF
:1031D300852935852A36123B89AB2BAA2CA92D903C
:1031E3000003121017F9AF25AE24AD23AC22F81259
:1031F30012BCC004C005C006C007A92D900004126C
:10320300110024FFFFE5F034FFFED003D002D0010C
:10321300D000EB5FFFEA5EFE787DA60608A607AB4B
:103223002BAA2CA92D900001121017B40416787D37
:10323300E6FE08E6FFAB28AA29A92A123976EC5440
:103243000FFC8022AB2BAA2CA92D90000112101782
:10325300B40218787DE6FE08E6FFAB28AA29A92A5E
:10326300123B2CE4FCFD787912136C78791213234A
:013273002238
:0A3535008F438D448B458A46894779
:10353F00D292D293E4F5492093030235FC209203F3
:10354F000235FC123D26E54325E0F5485348FEC2FF
:10355F00920544754A087F01123CE7C293154AAFA2
:10356F004AE548A807088002C313D8FC5401F54B5D
:10357F00123CE1D2933093FDA292E433F54C654BAC
:10358F006003754981E54AD394004004E54960C65C
:10359F007F01123CE7C293D2921544AB45AA46A9CC
:1035AF0047120FFEF54874012547F547E43546F5F8
:1035BF00467F01123CE7D2933093FDA292E433F59C
:1035CF004C6003754982E544D394004004E549609B
:1035DF00827F01123CE7C293C2927F01123CE7D275
:1035EF00933093FD7F02123CE7D29280037549819D
:0235FF00AF49D2
:0136010022A6
:0A2E34008F438D448B458A46894781
:102E3E00D292D293E4F549209303022F46209203B7
:102E4E00022F46123D26E54325E0F548434801C2D0
:102E5E0092754A087F01123CE7C293154AAF4AE5C4
:102E6E0048A807088002C313D8FC5401F54B123C46
:102E7E00E1D2933093FDA292E433F54C654B60039F
:102E8E00754981E54AD394004004E54960C67F0147
:102E9E00123CE7C293D2927F01123CE7D293309359
:102EAE00FDA292E433F54C6003754982E544D39458
:102EBE00004069E5497065754A087F01123CE7C21A
:102ECE0093154AD292E54D25E0F54D7F01123CE770
:102EDE00D2933093FDA292E433F54C424DE54AD3A2
:102EEE00940050D6AB45AA46A947E54D121077740B
:102EFE00012547F547E43546F546E544B401057529
:102F0E004B018003E4F54B7F01123CE7C293E54B86
:102F1E00123CE1D2933093FD154480907F01123C18
:102F2E00E7C293C2927F01123CE7D2933093FD7FAA
:0D2F3E0002123CE7D2928003754981AF4931
:012F4B002263
:103D26005389F0438901C2A9758CFF758AC3C28D78
:033D3600D28C220A
:063CE10024FF92927F0116
:103CE700308C03308DFDC28CBF010A758CFF758A3D
:063CF700C3C28DD28C2235
:1039EB0049324320546573742050726F6772616D56
:1039FB000A0D0A0A005344204361726420496E6920
:103A0B007469616C697A6174696F6E202E2E2E2039
:103A1B000A0D004469726563746F72792053656394
:103A2B00746F72203D20256C750A0D00456E746510
:103A3B00722053656C656374696F6E203D2000497D
:103A4B006E76616C69642053656C656374696F6E27
:033A5B000A0D0051
:102A6E00D2A6D2A5D2A7C2A4C2B2E4788EF608F638
:102A7E00788EE6FE08E6FFE4FCFD7B607AEAF9F864
:102A8E00C3121282400A788F06E61870E30680E0C1
:102A9E00D2A4758E0C758F01123D127BFF7A397997
:102AAE00EB1218357F807E1A7D067C001237EB788C
:102ABE0094EFF66004C2A480FE7BFF7A3A7900128E
:102ACE001835121E797894EFF66004C2A480FE7F4A
:102ADE00007E2D7D317C011237EB7894EFF6600489
:102AEE00C2A480FEE4788EF608F6788EE6FE08E63E
:102AFE00FFC3EE9402502274002FF58274003EF54F
:102B0E008374FFF074002FF58274023EF58374FF18
:102B1E00F006E61870D40680D17E007F0012143EB7
:102B2E007894EFF66004C2A480FE123D8F900006EA
:102B3E001212CF788612136C12241E7BFF7A3A790A
:102B4E001E78861213238F678E668D658C6412181D
:102B5E0035788612132375400075410012267E7853
:102B6E0090A60608A6077BFF7A3A79371218351217
:102B7E0036027892EEF608EFF67890E6FC08E6FD5F
:102B8E00D3EF9DEE9C505278861213237892E6F581
:102B9E004008E6F5417542007543001221A4788A7B
:102BAE0012136C788A121323E4FFFEFDEC5410FC12
:102BBE00788A601C121323EC540FFC788A12136C63
:102BCE00788A1213231236C8788612136C022B4998
:102BDE0012132312305E022B497BFF7A3A794A1286
:052BEE001835022B491F
:10360200E4F53C743E253CF8E4F6053CE53CB40B9D
:10361200F274FFF54CF54BF54AF549E4F53C123DE1
:103622004C8F3DE53DC394304012E53DD394395073
:103632000B743E253CF8A63D053C804AE53D6408F6
:103642006005E53DB47F0B153C743E253CF8E4F67D
:10365200802AE53D640D6005E53DB40A1A7B007AD7
:1036620000793E1234578F4C8E4B8D4A8C497F0D18
:103672001200037F0A800C7F081200037F201200D1
:10368200037F08120003E53CB40A1B7B007A007931
:103692003E1234578F4C8E4B8D4A8C497F0D12004F
:1036A200037F0A12000374FFFFFEFDFCAB4CAA4B22
:1036B200A94AA849C31212987003023620AF4CAE31
:0536C2004BAD4AAC49CC
:0136C70022E0
:103C54005374617274696E6720436C757374657212
:103C6400203D20256C750A0D005374617274696ED1
:103C74006720536563746F72203D20256C750A0DAF
:013C8400003F
:10305E008F3F8E3E8D3D8C3C7BFF7A3C79548F6743
:10306E008E668D658C64121835AF3FAE3EAD3DACAD
:10307E003C1236C878AA12136C7BFF7A3C796D78B5
:10308E00AA1213238F678E668D658C64121835789D
:10309E00A612137800000000E478AEF608F678A6C3
:1030AE0012132378AA12132FEB2FFFEA3EFEE93DEF
:1030BE00FDE83CFC75650275660075670175680074
:1030CE00756900123BDE78A6121323EF2401FFE48C
:1030DE003EFEE43DFDE43CFC78A612136CE478B0B1
:1030EE00F608F678A612132378AA12132FEB2FFFE9
:1030FE00EA3EFEE93DFDE83CFC756502756600752D
:10310E006701756802756900123BDE78A6121323FB
:10311E00EF2401FFE43EFEE43DFDE43CFC78A61204
:10312E00136CAF3FAE3EAD3DAC3C78B312136C7832
:10313E00B7760578B27601E4F5CDF5CBF5CCF5CAC8
:10314E00C28DF5C8438901D2ADD2AFD2CA78B2E6EC
:0D315E00600830A20543870180F3C2CA2239
:03002B00021B2F86
:101B2F00C0E0C0F0C083C082C0D075D000C000C07C
:101B3F0001C002C003C004C005C006C007C28C7537
:101B4F008C00758A00C28DD28C20A00A78B7E6B4BB
:101B5F00090408E618F620A10E78B7E6FF640960BD
:101B6F000608A60718760978B7E6B40115E47F4092
:101B7F00FEFDFC78A612132FC3121298400478B7FB
:101B8F00760378B7E6B40215E47F40FEFDFC78A635
:101B9F0012132FC3121298400478B7760478B7E661
:101BAF0014B408004003021E5C901BC675F003A41A
:101BBF00C58325F0C58373021C6A021DAA021CBAD5
:101BCF00021DFE021BDE021D1F021D0A021E4DC258
:101BDF00A4D2A5D2A6D2A7209059208D56D2917803
:101BEF00AEE6FE08E62400F58274003EF583E0FFC2
:101BFF007B007A0079B8123CB378AF06E618700113
:101C0F0006D378AFE694FF18E694014022D378B15B
:101C1F00E694FF18E69401401078B2E6B403047618
:101C2F0000800A78B77602800478B77606D28DC224
:101C3F009180A4209003021E5C78B7E664056003D0
:101C4F00021E5CD378B1E694FF18E6940178B74092
:101C5F00057602021E5C7607021E5CD2A4D2A5C2D4
:101C6F00A6D2A778A612132378AA12132FEB2FFF51
:101C7F00EA3EFEE93DFDE83CFC7532027533007526
:101C8F003401753500753600123B8978A61213237F
:101C9F00EF2401FFE43EFEE43DFDE43CFC78A61298
:101CAF00136C78B7760878AE021DF7D2A4D2A5D2FE
:101CBF00A6C2A778B3121323752600752700123119
:101CCF006B78B312136C74FFFFFEFD7C0F78B312A9
:101CDF00132FC3121298700678B27603801678B35A
:101CEF0012132312387778AA12136C78A61213786E
:101CFF000000000078B77608021E5CD2A4D2A5D2ED
:101D0F00A6D2A7309003021E5C78B77605021E5C40
:101D1F00D2A4C2A5D2A6D2A7209058208D55D29179
:101D2F0078B0E6FE08E62400F58274023EF583E003
:101D3F00FF7B007A0079B8123CB378B106E61870D1
:101D4F000106D378B1E694FF18E694014021D31829
:101D5F00E694FF18E69401401078B2E6B4030476D7
:101D6F0000800A78B77601800478B77605D28DC2E5
:101D7F009180A5209003021E5C78B7E6640660038D
:101D8F00021E5CD378AFE694FF18E6940178B74053
:101D9F00057601021E5C7608021E5CD2A4D2A5C293
:101DAF00A6D2A778A612132378AA12132FEB2FFF10
:101DBF00EA3EFEE93DFDE83CFC75320275330075E5
:101DCF003401753502753600123B8978A61213233C
:101DDF00EF2401FFE43EFEE43DFDE43CFC78A61257
:101DEF00136C78B7760778B07600087600805ED2ED
:101DFF00A4D2A5D2A6C2A778B31213237526027553
:101E0F00270012316B78B312136C74FFFFFEFD7C49
:101E1F000F78B312132FC3121298700678B276038D
:101E2F00801678B312132312387778AA12136C78AE
:101E3F00A61213780000000078B77607800FD2A49F
:101E4F00D2A5D2A6D2A720900478B77606C2CFD05B
:101E5F0007D006D005D004D003D002D001D000D0D7
:0A1E6F00D0D082D083D0F0D0E03252
:083BDE008F648E638D628C611F
:103BE600E4FF123D9DAB07C294AF64AE63AD62AC19
:103BF60061A8031212BC8F6E8E6D8D6C8C6B7F115B
:103C0600123281EF700DAB67AA68A969AF66AE651F
:0A3C1600123370D294EF60027FF0C9
:013C20002281
:083B89008F318E308D2F8C2E40
:103B9100E47880F6123D9D787FA607C294AF31AEDE
:103BA10030AD2FAC2EE6F9F81212BC8F3B8E3A8D58
:103BB100398C387F11122BF37880EFF67011AB340A
:103BC100AA35A936AF33AE32122D187880A607D2A6
:0C3BD100947880E6600276F07880E6FFD1
:013BDD0022C5
:10287E005344204361726420496E697469616C69C6
:10288E007A6174696F6E202E2E2E200A0D00434D34
:10289E0044302073656E74202E2E2E2000526573E8
:1028AE00706F6E7365203D2025322E3262580A0DF0
:1028BE0000434D44382073656E74202E2E2E20005A
:1028CE00526573706F6E7365203D200025322E3277
:1028DE006258200056657273696F6E203120534422
:1028EE0020436172642064657465637465642E0AA6
:1028FE000D005374616E6461726420436170616394
:10290E0069747920436172642064657465637465CB
:10291E00642E0A0D0056657273696F6E2032205355
:10292E004420436172642064657465637465642E2B
:10293E000A0D00434D4435382073656E74202E2EDB
:10294E002E200041434D4434312073656E74202E89
:10295E002E2E200048696768204361706163697498
:10296E007920436172642044657465637465640AFA
:10297E000D005374616E6461726420436170616313
:10298E00697479204361726420446574656374656B
:10299E00640A0D00434D4431362073656E74202E4B
:1029AE002E2E2000526573706F6E7365203D2025AC
:1029BE00322E326258200A0D00426C6F636B207308
:1029CE00697A652073657420746F20353132206208
:1029DE00797465730A0D0054696D656F75742045C1
:1029EE0072726F7200496C6C6567616C20436F6D1B
:1029FE006D616E640A0D00526573706F6E736520A3
:102A0E004572726F72004461746120546F6B656E13
:102A1E00204572726F7200496E636F6D70617469DA
:102A2E00626C6520566F6C746167650043617264F9
:102A3E0020697320496E616374697665005350494D
:102A4E00206F722054696D656F7574204572726FB8
:102A5E007200556E6B6E6F776E204572726F7200DC
:0D327400C294E4F56EF56DF56CF56B7F3AD4
:023281008F6A52
:10328300E4F570E56AC39440400302336AE56A4497
:1032930040F56F7B007A007971FF123C85EF701A5D
:1032A300AF6EAE6DAD6CAC6B78181212A98F6F7BDD
:1032B300007A007971123C858003757087E5707020
:1032C3002CEF7029E56EF56EE56DF56DE56CF56C2B
:1032D300E4F56BAF6EAE6DAD6CAC6B78101212A9EA
:1032E3008F6F7B007A007971123C8580037570873C
:1032F300E570702AEF7027E56EF56EE56DF56DE408
:10330300F56CF56BAF6EAE6DAD6CAC6B78081212ED
:10331300A98F6F7B007A007971123C8580037570E9
:1033230087E5707015EF7012E56EFFE48F6FFB7A1F
:10333300007971AF6F123C858003757087E57070FB
:1033430029EF7026E56A7005756F95800DE56AB4FF
:103353000805756F878003756F017B007A007971AB
:0C336300AF6F123C858003757082AF7064
:01336F00223B
:022BF3008F371A
:102BF500E47882F6E537C394404003022D0FE537AC
:102C05004440FF18F67B007A007983123C8578846E
:102C1500EFF67020AF3BAE3AAD39AC3878181212EA
:102C2500A97881EFF67B007A007983123C85788458
:102C3500A6078004788276877882E670347884E601
:102C4500702FE53BF53BE53AF53AE539F539E4F51D
:102C550038AF3BAE3AAD39AC3878101212A978814D
:102C6500EFF67B007A007983123C857884A607808D
:102C750004788276877882E670327884E6702DE56E
:102C85003BF53BE53AF53AE4F539F538AF3BAE3A75
:102C9500AD39AC3878081212A97881EFF67B007A45
:102CA500007983123C857884A6078004788276872C
:102CB5007882E6701D7884E67018E53BFFE478813C
:102CC500EFF6FF7B007A007983123C857884A607AE
:102CD5008004788276877882E670337884E6702E71
:102CE500E537700678817695800DE5377881B408EB
:102CF500047687800276017881E6FF7B007A007989
:102D050083123C857884A60780047882768278824F
:022D1500E6FFD7
:012D17002299
:07375A00FB7A00793F7F01BB
:083761008F4E8B4F8A508951F5
:10376900E4F5537B007A0079547FFF123C850552BA
:10377900E55430E707E5526003EF60E7EF60057550
:1037890053878050E55270057553818047AB4FAA26
:1037990050A951E554121077E55460046401703161
:1037A900E54ED39401402D755201E552C3954E5013
:1037B900237B007A0079547FFF123C85AB4FAA50D6
:1037C900A951855282758300E554121089055280EA
:1037D900D97553837B007A0079547FFF123C85AFFA
:0137E900538C
:0137EA0022BC
:0A3370008E6A8F6B8B6C8A6D896E7C
:10337A00E4F571F572F56F7B007A0079707FFF12C0
:10338A003C850572E57270020571E57030E709E562
:10339A007245716003EF60DFEF60028037E57245C6
:1033AA00717002803AE5706003023446F571F57275
:1033BA007B007A0079707FFF123C850572E5727096
:1033CA00020571E570B4FF09E57245716003EF60AB
:1033DA00DFEF6005756F878066E572457170057568
:1033EA006F81805BE57064FE704DF571F572C3E51F
:1033FA0072956BE571956A50267B007A0079707F29
:10340A00FF123C85AB6CAA6DA96E857282857183A9
:10341A00E5701210890572E57270D3057180CF7B51
:10342A00007A0079707FFF123C857B007A00797000
:10343A007FFF123C858008756F848003756F837BDC
:0C344A00007A0079707FFF123C85AF6FA4
:013456002253
:0A2D18008E378F388B398A3A893BD9
:102D2200E47884F608F67882F67B007A0079837F6D
:102D3200FF123C857881A607788506E618700106A1
:102D42007883E6FF30E70C7885E6184660057881DF
:102D5200E660D67881E6600280437885E6184670A0
:102D6200028046EF6003022E1D7884F608F67B008F
:102D72007A0079837FFF123C857881A607788506E1
:102D8200E6187001067883E6FFB4FF0C7885E61832
:102D92004660057881E660D67881E6600508768728
:102DA200807D7885E618467006788276818070EF9D
:102DB20064FE70617884F608F6C37885E695381863
:102DC200E6953750307B007A0079837FFF123C858D
:102DD2007881A6077883E6FFAB39AA3AA93B08E6D1
:102DE200FC08E6F5828C83EF121089788506E618D6
:102DF20070C70680C47B007A0079837FFF123C850E
:102E02007881A6077B007A0079837FFF123C857860
:102E120081A607800A788276848004788276837B12
:102E2200007A0079837FFF123C857881A60708E645
:012E3200FFA0
:012E3300227C
:101E7900E4F53D781F76FFD2947BFF7A28797E12AC
:101E89001835E4F53C7B007A0079477FFF123C85E1
:101E99008F3E053CE53CC3940A40EAC2A77BFF7A22
:101EA90028799C121835C294E4F56EF56DF56CF538
:101EB9006BFF1232818F3EE53E701712375A8F3E03
:101EC900D294D2A77BFF7A2879AB853F6412183563
:101ED9008006D294D2A7C2A4E53E6002F53DE53D55
:101EE9006003021F93C2A77BFF7A2879BF121835B6
:101EF900C294E4756EAA756D01F56CF56B7F0812D5
:101F090032818F3EE53E704BFB7A00793F7F0512A7
:101F190037618F3ED294D2A77BFF7A2879CE1218E7
:101F290035E4F53C7BFF7A2879DA743F253CF8E6FD
:101F3900F564121835053CE53CC3940540E67F0D70
:101F49001200037F0A120003E54364AA600B753E81
:101F5900838006D294D2A7C2A4E53E6020B4821839
:101F6900E4F53D781F76097BFF7A2879E212183566
:101F79007BFF7A297900800F853E3D800D781F7699
:101F8900027BFF7A297923121835E53D706DC2A7C6
:101F99007BFF7A2979411218351232748F3EE53E5A
:101FA900704DFB7A00793F7F051237618F3ED294DD
:101FB900D2A77BFF7A2879CE121835E4F53C7BFF4E
:101FC9007A2879DA743F253CF8E6F5641218350564
:101FD9003CE53CC3940540E67F0D1200037F0A12DD
:101FE9000003E54154FC64FC600B753E858006D214
:101FF90094D2A7C2A4E53E6002F53DE53D60030227
:1020090020B3781FE6B4020CE4F54BF54AF549759F
:1020190048408009E4F54BF54AF549F548E4F54CA3
:10202900F54DC2A77BFF7A297951121835C294C29E
:10203900B5E4F56EF56DF56CF56B7F371232818F6E
:102049003EE53E700512375A8F3ED2B5E53F640131
:102059006004E53F7013854B6E854A6D85496C8533
:10206900486B7F291232818F3EE53E700312375A41
:10207900054DE54D7002054C454C7003753E81E5F3
:102089003F30E004E53E60A7E53E7012D294D2A746
:102099007BFF7A2879AB853F641218358006D29484
:1020A900D2A7C2A4E53E6002F53DE53D60030221E9
:1020B90099781FE664026003022199C2A77BFF7A1F
:1020C9002979411218351232748F3EE53E600302B8
:1020D9002188FB7A00793F7F051237618F3ED294C0
:1020E900D2A77BFF7A2879CE121835E4F53C7BFF1D
:1020F9007A2879DA743F253CF8E6F5641218350533
:102109003CE53CC3940540E67F0D1200037F0A12AB
:102119000003E54020E705753E868069E54054C027
:10212900FFBFC00CE4781FF67BFF7A297962804AE9
:10213900781F76097BFF7A297980121835C2A77B27
:10214900FF7A2979A2121835C294E4F56E756D02E9
:10215900F56CF56B7F101232818F3EE53E702612C9
:10216900375A8F3ED294D2A77BFF7A2979B2853F1D
:10217900641218357BFF7A2979C71218358006D27F
:1021890094D2A7C2A4E53E6007F53DAF3D123AC718
:0A219900E53D6004FF123AC7AF3DB8
:0121A3002219
:053D9D00781FE6FF2283
:103AC7008F4EE54EB481087BFF7A2979E58052E570
:103AD7004EB482087BFF7A2979F38045E54EB4839B
:103AE700087BFF7A2A79058038E54EB484087BFF86
:103AF7007A2A7914802BE54EB485087BFF7A2A79D8
:103B070025801EE54EB486087BFF7A2A793A801114
:103B1700E54E7BFFB487067A2A794B80047A2A79A7
:053B27006012183522B8
:1037EB00E4F53CAB07AA06A905A804FF7E407D19AA
:1037FB007C011211F0EFD39402500575C3708069F0
:10380B00EFD39402400BEFD39404500575C3718032
:10381B0058EFD39404400BEFD39408500575C37243
:10382B008047EFD39408400BEFD39410500575C32A
:10383B00738036EFD39410400BEFD3942050057563
:10384B00C3F08025EFD39420400BEFD39440500569
:10385B0075C3F18014EFD39440400BEFD394805099
:0B386B000575C3F28003753C0FAF3CF5
:01387600222F
:103C8500E4FE8FC5AFC40EEF54F07003EE70F5EE91
:103C95006012EF54707004E5C5800274FF1210774E
:0D3CA500E4FE800774FF1210777E80AF06EA
:013CB20022EF
:103CB300E4FE8FC5AFC40EEF54F07003EE70F5EE63
:103CC3006012EF54707004E5C5800274FF12107720
:0D3CD300E4FE800774FF1210777E80AF06BC
:013CE00022C1
:102F4C004F75747075742066726F6D2049442072D1
:102F5C00656769737465723A2025322E3262582087
:102F6C000A0D0053544130313320536F667456654B
:102F7C007273696F6E3A2025322E326258200A0D18
:102F8C0000466972737420636F6E6669677572614F
:102F9C0074696F6E2066696C652073656E742E2E75
:102FAC002E0A0D004E756D626572206F662076617B
:102FBC006C756573207772697474656E3A2025643C
:102FCC00200A0D0053656E7420746F2053544130E9
:102FDC0031333A2025322E326258202025322E32BF
:102FEC006258200A0D004F75747075742066726FEC
:102FFC006D2072656769737465723A2025322E32C2
:10300C006258202025322E3262582025322E326210
:10301C0058200A0D00436F6E66696775726174699A
:10302C006F6E20436F6D706C6574650A0D0054559E
:10303C00060B525165645061050D180C46487D72A3
:10304C0007100902B80000000605A10004050707D7
:02305C00000171
:10241E00C2B278957601753D32D2B2C2B47B007AE3
:10242E000079957D017F431235358F3CD53D02C233
:10243E00A6E53C6004E53D70E4E53D602E753D3259
:10244E007B007A0079987D017F43122E348F3C15E4
:10245E003DE53C6004E53D70E7E53D600E7BFF7AAF
:10246E002F794C7898E6F564121835D2B47898E640
:10247E0064AC600302267B78957671FB7A007995C1
:10248E007D017F431235358F3C7B007A0079987D34
:10249E00017F43122E348F3C7BFF7A2F796F789811
:1024AE00E6F564121835E4F541F542753EFF753FC9
:1024BE000075402EAB3EAA3FA940854282854183DE
:1024CE001210177895F60542E54270020541F58225
:1024DE008541831210177896F60542E54270020583
:1024EE004118E6F4601F753D327B007A0079957DC8
:1024FE00027F431235358F3CD53D02C2A6E53C60C6
:10250E0004E53D70E47895E6F46004E53D70A57B46
:10251E00FF7A2F798D1218357BFF7A2F79B0E5412E
:10252E00C313F564E54213F565121835E4F541F56C
:10253E0042753EFF753F0F7540CCAB3EAA3FA9409A
:10254E008542828541831210177895F60542E54241
:10255E0070020541F5828541831210177896F605B3
:10256E0042E5427002054118E6F4601F753D327B6C
:10257E00007A0079957D027F431235358F3CD53D2B
:10258E0002C2A6E53C6004E53D70E47895E6F46091
:10259E0004E53D70A5789576717B007A0079957D7E
:1025AE00017F431235358F3C7B007A0079987D018F
:1025BE007F43122E348F3C7BFF7A2F796F7898E60B
:1025CE00F564121835E4F541F542743A2542F58268
:1025DE0074303541F583E4937895F6744C2542F5C5
:1025EE008274303541F583E49308F6753D327B00F5
:1025FE007A0079957D027F431235358F3CD53D02A9
:10260E00C2A6E53C6004E53D70E47BFF7A2F79D0ED
:10261E007895E6F56408E6F5651218357B007A00C4
:10262E0079957D017F431235358F3C7B007A007999
:10263E00987D017F43122E348F3C7BFF7A2F79F2E7
:10264E007895E6F5647898E6F565853C661218355A
:10265E000542E54270020541C39412E541940050D3
:0F266E00030225D87BFF7A307921121835AF3C53
:01267D00223A
:103D120053873F759850E4F59B759AC4759B1ED2E4
:043D220099C2AC2274
:10002E003A012A0428002900200021002200230082
:10003E00240025002600270028012802218F2803EE
:10004E002100280428052806280728082809280A38
:10005E00280B280C20802190280D20002100280E2E
:10006E0020812191280F2000219228102100281193
:10007E0021932812210028132814281520822816CF
:10008E0020002817281828192194281A2195281B92
:10009E002196281C2100281D2083281E2000281FA1
:1000AE0021972820210028212822282328242825AA
:1000BE002826282728282829282A2084282B20008B
:1000CE00282C282D282E282F28302831283220851C
:1000DE002833200028342835283628372198283808
:1000EE0021002839283A283B283C283D283E283F25
:1000FE002840284128422843284428452846284796
:10010E0028482849284A284B284C284D284E284F45
:10011E0028502851285228532854285528562857F5
:10012E0028582859285A285B285C285D285E285FA5
:10013E002860286128622199286321002864286597
:10014E002866286728682869286A286B286C286D15
:10015E00286E286F287028712872287328742875C5
:10016E002876287728782879287A287B287C287D75
:10017E00287E287F28802881288228832884288525
:10018E002886288728882889288A288B288C288DD5
:10019E00288E288F289028912086289220872893B1
:1001AE002000289428952896289728982899289AE8
:1001BE00289B289C289D289E289F219A28A02100B4
:1001CE0028A128A228A328A428A528A628A728A8BD
:1001DE0028A928AA28AB28AC28AD28AE28AF28B06D
:1001EE0028B128B228B328B428B528B628B728B81D
:1001FE0028B9208828BA200028BB208928BC2000D6
:10020E0028BD28BE28BF28C028C128C228C3219BCC
:10021E0028C4210028C528C628C728C828C928CA26
:10022E0028CB28CC28CD28CE28CF28D028D128D20C
:10023E0028D328D428D528D628D728D828D928DABC
:10024E0028DB28DC28DD28DE28DF28E028E1208ACC
:10025E0028E2208B28E3200028E428E528E628E77A
:10026E0028E828E928EA28EB28EC28ED28EE28EFE4
:10027E0028F028F128F228F328F428F528F628F794
:10028E0028F8208C28F92000219C28FA219D28FB93
:10029E00208D219E28FC208E219F28FD20002100EC
:1002AE0028FE28FF2A0128002201239524892507EC
:1002BE0026A42707280121C72200238026C4270C45
:1002CE0028022009211C220426AA270A280320001E
:1002DE002100220023A626A0270728042805200592
:1002EE00238426B427092806200022032300248114
:1002FE0025C026AB270A280721AE22002395248984
:10030E00250726A42700280821482201238026C479
:10031E00270C280920092104220426AA270A280AC4
:10032E0020002100220023A826A42707280B280C32
:10033E0021402220238026C4270C280D222426C6E5
:10034E00280E219E220026C8280F200921022214E1
:10035E0026AA270A2810200521002200238426B46D
:10036E0027092811200021012300240125C026ABD6
:10037E00270A281221C32395248925072620270022
:10038E002813200321C223832626270D281421B3E8
:0D039E0022082815200021C62200239526E4
:1003AB000027082816210023002496250326AA27B8
:1003BB000A2817204221B6238024892507281820D4
:1003CB000021002394260E2819200F238426B427FE
:1003DB0009281A2000239326A82703281B26282741
:1003EB0000281C21012300240125C026AB270A2845
:1003FB001D21C523952489250726202700281E218A
:10040B000023942600270A281F260E2820200321CC
:10041B0079220123832626270D2821213228222009
:10042B0000210422002380240025FC26AA270A2869
:10043B0023210023002500282421A3220D2380241F
:10044B009E253B2825204221572201248925072858
:10045B002620002143220D2400253828272108229D
:10046B009823952489250726242700282820422114
:10047B00932201238026AA270A28292003217E22E2
:10048B000423832626270D282A200021B0220023AF
:10049B009526A02707282B21002300240C250426B2
:1004AB00AA270A282C21022380248625C326AB28C1
:1004BB002D2042219722012489250726AA282E20A8
:1004CB000021002200241F2504282F21B22395246C
:1004DB008925072620270428302042218B2204233C
:1004EB008026AA270A2831200021B1220023952635
:1004FB00A0270728322003217522042383262627D1
:10050B000D2833200521002200238426B427092837
:10051B0034200021602300240125C026AB270A28A4
:10052B00352108229823952489250726242700287E
:10053B003621BC2200283721A3220D2300240125BC
:10054B00C026AB270A2838216022002380240025EF
:10055B003826AA283921062298239524892507268F
:10056B00242700283A21BE2200283B200521002306
:10057B008426B42709283C20002160230024012570
:10058B00C026AB270A283D21422201239524892529
:10059B000726242700283E210C229826A42707286B
:1005AB003F21082840216022002300240125C0267A
:1005BB00AB270A2841210C2298239524892507264D
:1005CB002427002842200521002200238426B4275B
:1005DB00092843200023802400251026AB270A2856
:1005EB00442122220123952489250726242700282C
:1005FB00452100220023002404251226AA270A28BD
:10060B0046200321D4220523832489250726262768
:10061B000D28472000216022002300240125C0263D
:10062B00AB270A284821B3239524892507260027C1
:10063B00082849210023002409250026AA270A2877
:10064B004A210223802486253B284B204221DD2290
:10065B000524892507284C200021002200241F2572
:10066B0000284D21B3239524892507262027002810
:10067B004E210023002497250326AA270A284F2062
:10068B004221E222052380248925072850200021BE
:10069B001022002300248025CC26AB2851210022D8
:1006AB004023B42489250726AA2704285222002395
:1006BB00B0269227092853211422012395260027BF
:1006CB00082854214823A4262A2700285521002234
:1006DB000023002409250026AA270A2856210823CF
:1006EB00802486253B285720422111220724892567
:1006FB00072858200021002200241F2500285921FB
:10070B0014220123952489250726202700285A2106
:0D071B001626022709285B2100220023007A
:100728002480254826AA270A285C23A0248925078F
:1007380026142709285D2480255026A42704285E2E
:10074800211622012395248925072700285F2104E3
:1007580022002300249C257826AA270A2860214302
:10076800220D240125C426AB28612103220024156B
:10077800286221002400250026AA2863215E2395EB
:100788002489250726102709286421032300241516
:1007980025C426AB270A28652100238024002506C6
:1007A80026AA2866248F25E326AB2867204221CD78
:1007B80022072489250726AA28682000216022000C
:1007C8002300240125C026AB286921002380248F1B
:1007D800250326AA286A204221DD22072489250725
:1007E800286B20002143220D2300240125C026ABBD
:1007F800286C210022002400250426AA286D200345
:10080800217F22012383248925072626270D286E88
:100818002162286F200521002200238426B427099D
:100828002870200021062395260027082871210119
:1008380023002497253B26AA270A28722042210E46
:10084800220823802489250728732003213C220BB2
:1008580023832626270D28742000210322002395B0
:1008680026022708287521272300248125C426ABC2
:10087800270A2876210023802409254826AA2877D4
:100888002158223423A324892507262A27002878DB
:100898002100220023A02600270928792107238088
:1008A8002403253926AA270A287A21042300241C90
:1008B8002538287B2107238024832539287C210398
:1008C80023952489250726022708287D2127230028
:1008D800248125C426AB270A287E210023802409E9
:1008E800254826AA287F2158223423A324892507AE
:1008F800262A27002880210622002300248125C0DB
:10090800269327012881210023802489254826AAA7
:10091800270A28822002216622082300240025664F
:1009280028832000210022002380241F25022884F8
:1009380021062489250726DC270C2885210023AADF
:1009480026AA270A288623B6260027082887238070
:100958002486253B26AA270A2888210524892507D5
:1009680026DC270C2889210023AA26AA270A288AF8
:1009780023B626002708288B23802486253B26AA11
:10098800270A288C2042217B220824892507288DC4
:10099800200021002200230024012582288E210521
:1009A800248125C226AB288F200321932208238384
:1009B800248925072626270D2890200021052200B6
:1009C8002300248125C02613270128912100238094
:1009D8002489254826AA270A28922002217E22084F
:1009E800230024002566289320002100220023806C
:1009F800241F2502289421052489250726DC270C95
:100A08002895210023AA26AA270A289623B6260075
:100A18002708289723802486253B26AA270A289872
:100A280021052489250726DC270C2899210023AADB
:100A380026AA270A289A2380241F2502289B2101F9
:100A48002300248125C226AB289C20032193220859
:100A58002383248925072626270D289D2000210485
:100A68002200239526122708289E216023C426AA3F
:100A78002704289F210023C02600270928A02042F8
:100A880021CB2208238026AA270A28A120702154D6
:0D0A980022B823952612270828A22002214B
:100AA500CC2208238026AA270A28A3200321CA22AC
:100AB5000F23832626270D28A420002100220023AA
:100AC50000248C250C26AA270A28A5210424822582
:100AD5007828A62100238024892548261227042862
:100AE500A7200321DE220F238325072626270D288D
:100AF500A82000210122002300249C257826AA276E
:100B05000A28A9210023802481254028AA20032121
:100B1500CF220F2383248925072626270D28AB20DE
:100B250070210822B8239526A0270428AC2003218C
:100B3500D4220F23832626270D28AD2127220B2813
:100B4500AE2070216322B823952612270828AF20EE
:100B550000210122002380248625CB26AB270A28E5
:100B6500B0204221DD22082489250726AA28B120A4
:100B75000021182280239526A4270028B2200321CE
:100B8500D9220F23832626270D28B32070210A2278
:100B9500B8239526A0270028B4200221E0220823A7
:100BA5008026AA270A28B52070210A22B82395266F
:100BB500A0270028B621542602270828B72000219F
:100BC50018228026A4270028B8210022002380248B
:100BD50080254826AA270A28B92070215E22B82335
:100BE50095248925072612270828BA2000210022E6
:100BF5000023802409254B26AA270A28BB2070211B
:100C05005F22B82395248925072610270828BC20AC
:100C150000210022002300241C258326AB270A2857
:100C2500BD2003213222092383248925072626276F
:100C35000D28BE20002100220023002482258C26B9
:100C4500AB270A28BF2003212522092383248925D0
:100C5500072626270D28C0204221BC238026AA2747
:100C65000A28C12000210122002300240125C026D5
:100C7500AB28C22070210F22B82395248925072689
:100C850020270028C3200321E3220F2383262627BC
:100C95000D28C4200521002200238426B427092815
:100CA500C52000210323952614270828C621A6233D
:100CB500A4262A270528C7210023A026442709287A
:100CC500C82118226D2380249E257B26AA270A2861
:100CD500C920422113220B2489250728CA20002177
:100CE500AE220023952624270028CB2100220323AA
:100CF500802487257B26AA270A28CC204221162274
:100D05000B2489250728CD200021AE220023952616
:100D150024270028CE20052100238426B42709286E
:100D2500CF2003210D220B23832626270D28D02033
:100D35000021002200230024802602270028D12339
:100D45008024092548261E28D221582234233324FD
:100D5500802507262A28D321002200230026802764
:100D65001028D421102363262A270028D521002303
:100D75006026A8271228D621AF224C230026C82793
:100D85000C28D7210022002680270528D823802477
:100D950086253B261E270028D92042211C220E230A
:100DA500002480250728DA20002135222926C4279A
:100DB5000C28DB2002211D220E261E270028DC2000
:100DC50000217F223426C4270C28DD2100220023A0
:100DD50090249F25042610270A28DE230024842535
:100DE500002680271028DF21062363248025072677
:100DF5002A270028E021002380248926AA270A28FB
:100E0500E12005238426B4270928E22070216122E8
:0D0E1500B823952612270828E320002101AC
:100E220022002380248625C326AB270A28E42042F9
:100E320021CE220F2489250726AA28E520702150D9
:100E420022B823952612270828E620052100220031
:100E5200238426B4270928E72070216422B8239529
:100E62002612270828E82000210122002380248658
:100E720025C326AB270A28E9204221D3220F248941
:100E8200250726AA28EA2070215122B82395261286
:100E9200270828EB200521002200238426B42709F5
:100EA20028EC2070216522B823952612270828ED08
:100EB2002000210122002380248625C326AB270A95
:100EC20028EE204221D8220F2489250726AA28EFBE
:100ED2002070215222B823952612270828F02005D7
:100EE20021002200238426B4270928F120702161E1
:100EF20022B823952602270828F220002101220089
:100F02002380248625C326AB270A28F3204221DD2D
:100F1200220F2489250726AA28F42070215022B8FE
:100F220023952602270828F5200521002200238484
:100F320026B4270928F6200021012380248625CB08
:100F420026AB270A28F7204221E1220F2489250710
:100F520026AA28F82000210222002300248125C489
:100F620026AB28F9210023802489254826AA28FABD
:100F720020052384250726B4270928FB2070214E4B
:100F820022B823952610270828FC200021002200E1
:100F92002380248625C326AB270A28FD204221E789
:100FA200220F2489250726AA28FE200021BB220021
:100FB20023952620270028FF20052100238426B41C
:100FC20027092A081001FFFFFFFF3A00643A65BBB8
:100FD200083A09BB50105267517705A11804540111
:100FE20055210700060C0B03501051005204610FEB
:0C0FF2006455655505A11804FFFFFFFFC2
:03000000023D7945
:0C3D7900787FE4F6D8FD7581B8022A6E50
:100FFE00BB010689828A83E0225002E722BBFE02F1
:09100E00E32289828A83E4932223
:10101700BB010CE58229F582E5833AF583E022508E
:1010270006E92582F8E622BBFE06E92582F8E222D8
:0D103700E58229F582E5833AF583E49322F2
:10104400BB010FF8E58229F582E5833AF583E028B0
:10105400F0225009C58229F8E58226F622BBFE0952
:10106400C58229F8E22582F222F8EA2583F583E98C
:031074009328229C
:10107700BB010689828A83F0225002F722BBFE0158
:02108700F32252
:10108900F8BB010DE58229F582E5833AF583E8F09D
:10109900225006E92582C8F622BBFE05E92582C849
:0210A900F22231
:1010AB00BC000BBE0029EF8DF084FFADF022E4CC29
:1010BB00F875F008EF2FFFEE33FEEC33FCEE9DECF2
:1010CB00984005FCEE9DFE0FD5F0E9E4CEFD22ED38
:1010DB00F8F5F0EE8420D21CFEADF075F008EF2F82
:1010EB00FFED33FD4007985006D5F0F222C398FD73
:0510FB000FD5F0EA2210
:10110000BB0110E58229F582E5833AF583E0F5F02D
:10111000A3E0225009E92582F886F008E622BBFE0A
:101120000AE92582F8E2F5F008E222E5832AF58350
:08113000E993F5F0A3E9932215
:10113800F8BB0111E58229F582E5833AF583E8F0E9
:10114800E5F0A3F0225009E92582C8F608A6F022A6
:0D115800BBFE09E92582C8F2E5F008F2228D
:10116500E88FF0A4CC8BF0A42CFCE98EF0A42CFC29
:101175008AF0EDA42CFCEA8EF0A4CDA8F08BF0A4A7
:101185002DCC3825F0FDE98FF0A42CCD35F0FCEB06
:101195008EF0A4FEA9F0EB8FF0A4CFC5F02ECD39CB
:0F11A500FEE43CFCEAA42DCE35F0FDE43CFC2238
:1011B40075F008758200EF2FFFEE33FECD33CDCCF2
:1011C40033CCC58233C5829BED9AEC99E582984075
:1011D4000CF582EE9BFEED9AFDEC99FC0FD5F0D652
:1011E400E4CEFBE4CDFAE4CCF9A88222B800C1B97C
:1011F4000059BA002DEC8BF084CFCECDFCE5F0CBBA
:10120400F97818EF2FFFEE33FEED33FDEC33FCEBF2
:1012140033FB10D703994004EB99FB0FD8E5E4F9AD
:10122400FA227818EF2FFFEE33FEED33FDEC33FC9A
:10123400C933C910D7059BE99A4007EC9BFCE99A8E
:10124400F90FD8E0E4C9FAE4CCFB2275F010EF2FD3
:10125400FFEE33FEED33FDCC33CCC833C810D707D3
:101264009BEC9AE899400AED9BFDEC9AFCE899F80E
:0E1274000FD5F0DAE4CDFBE4CCFAE4C8F922A1
:10128200EB9FF5F0EA9E42F0E99D42F0EC6480C8E3
:0612920064809845F02283
:10129800EB9FF5F0EA9E42F0E99D42F0E89C45F0AC
:0112A8002223
:1012A900E8600FECC313FCED13FDEE13FEEF13FF23
:0312B900D8F12247
:1012BC00E8600FEFC333FFEE33FEED33FDEC33FC90
:0312CC00D8F12234
:1012CF00BB010DE58229F582E5833AF58302139F71
:1012DF005007E92582F8021323BBFE07E92582F8A0
:1012EF000213ABE58229F582E5833AF5830213B742
:1012FF00BB010DE58229F582E5833AF5830213F0F0
:10130F005007E92582F802136CBBFE07E92582F826
:04131F000213FC2297
:0C132300E6FC08E6FD08E6FE08E6FF22F6
:0D132F00E6FB08E6F908E6FA08E6CBF8222E
:10133C00BB010DE58229F582E5833AF5830213C7DB
:10134C005007E92582F802132FBBFE07E92582F826
:10135C000213D3E58229F582E5833AF5830213E083
:0C136C00ECF608EDF608EEF608EFF622AD
:10137800D083D082E493F608740193F6087402933C
:09138800F608740393F674047373
:10000300EFB40A07740D12000E740A309811A89900
:10001300B8130CC2983098FDA899C298B811F6305D
:0700230099FDC299F5992235
:1017D300E5702464F8E605702278613007027864C6
:1017E300E475F001121408020FFE2000EB7F2ED2E5
:1017F300008018EF540F2490D43440D4FF30040BEE
:10180300EF24BFB41A0050032461FFE57160021591
:10181300710574E5747002057330070D7861E47522
:10182300F001121408EF0210770200037403D207C9
:101833008003E4C207F5708B618A628963E4F57102
:10184300F573F574E57160077F2012180E80F57546
:1018530072FFC201C200C202C203C205C206C208AD
:101863001217DCFF700D3007057F0012181FAF74CD
:10187300AE7322B4255FC2D5C2041217DCFF24D095
:10188300B40A00501A75F00A787130D50508B6FF0E
:101893000106C6A426F620D5047002D20380D924FB
:1018A300CFB41A00EF5004C2E5D204021A1FD201CA
:1018B30080C6D20080C0D20280BCD2D580BAD20505
:1018C30080B47F2012180E2002077401B571004006
:1018D300F11217D3FF12180E021847D208D206804E
:1018E300951217D3FB1217D3FA1217D3F94A4B7079
:1018F3000679F07A1A7BFF20022EE571602A7E00BA
:101903008E8275830012101760060EEE657270F0FA
:10191300C2D5EBC0E0EAC0E0E9C0E0EE121A66D03F
:10192300E0F9D0E0FAD0E0FB120FFEFF60AAEBC0B3
:10193300E0EAC0E0E9C0E012180ED0E02401F9D0DB
:10194300E03400FAD0E0FBE5720460DCD572D980A4
:10195300877BFF7A1A7962D202809C7910800279A0
:1019630008C206C2088008D2D5790A8004790AC25F
:10197300D5E572047002F572E4FAFDFEFF1217D387
:10198300FC7B082001131217D3FD7B1030000A12D1
:1019930017D3FE1217D3FF7B20EC3382D592D55099
:1019A30013C3E43000069FFFE49EFEE42001039D81
:1019B300FDE49CFCE4CBF8C201EC700CCFCECDCCA3
:1019C300E824F8F870F38017C3EF33FFEE33FEED2E
:1019D30033FDEC33FCEB33FB994002FB0FD8E9EB0F
:1019E300300105F8D0E0C448B201C0E00AEC4D4E26
:1019F3004F78207B0070C2EAB5720040BCC0E01291
:101A03001A68D0F0D0E0200104C4C0E0C4B201C021
:101A1300F01217F7D0F0D5F0EB021847121418188C
:101A2300E453195E5818B54C18B14219624F196A3C
:0F1A330044196A4918CA43197055195446195471
:101A4200451954471B105018B92D18BD2E18E02BFC
:101A520018C12318DE201AF92A187948000018D86C
:101A62003F3F3F00790AA2D5200314300509B9107F
:101A7200020404B9080104A2D52006025001042080
:101A820002689202B571005034C0E07F2030031921
:101A92007F30A20272067205500F121ABFC202C232
:101AA20006C205C2087F30800F300503E9C0E0128C
:101AB200180E300503D0E0F9D0E0B571CC3005172F
:101AC2007F30B9100C12180E7F583004077F7880CF
:101AD20003B9080312180E3002057F2D02180E7F7B
:101AE200202008F87F2B2006F322920280CF286E56
:101AF200756C6C2900D2011217D33001F8C201783B
:101B02007130D50108F60218792D50434958121741
:101B1200D32403B405004001E4901B0B931217FF7A
:0D1B2200743A1217FFD20375710402195EA8
:103D4C0010090B123D85BF0D027F0A020003AF085C
:013D5C002244
:103457008B4D8A4E894FAB4DAA4EA94F120FFEFFD7
:10346700123D39500D7401254FF54FE4354EF54E99
:1034770080E4D200AB4DAA4EA94F120FFEFF642B7A
:103487006004EFB42D1BAB4D054FE54FAA4E7002FC
:10349700054E14F9120FFE642D6003D38001C39209
:1034A70000E4F553F552F551F550AB4DAA4EA94F2F
:1034B700120FFEFF123D5D505CE47F0AFEFDFCAB80
:1034C70053AA52A951A850121165C8ECC8EDC0E023
:1034D700EEC0E0EFC0E0AB4DAA4EA94F120FFEFFC2
:1034E7003395E0FEEF24D0FFEE34FFFEE4FCFDD081
:1034F700E0FBD0E0FAD0E0F9EB2FF553EA3EF552C6
:10350700ED39F551EC38F5507401254FF54FE43599
:103517004EF54E809530000AAF53AE52AD51AC50C8
:0E352700800BAF53AE52AD51AC501213912237
:0E139100C3E49FFFE49EFEE49DFDE49CFC226D
:0C139F00E0FCA3E0FDA3E0FEA3E0FF22C1
:0C13AB00E2FC08E2FD08E2FE08E2FF227E
:1013B700E493FC740193FD740293FE740393FF227C
:0C13C700E0F8A3E0F9A3E0FAA3E0FB22A9
:0D13D300E2FB08E2F908E2FA08E2CBF8229A
:1013E000E493F8740193F9740293FA740393FB2263
:0C13F000ECF0A3EDF0A3EEF0A3EFF02270
:0C13FC00ECF208EDF208EEF208EFF2222D
:10140800FAE6FB0808E6F925F0F618E6CA3AF622E5
:10141800D083D082F8E4937012740193700DA3A363
:1014280093F8740193F5828883E473740293686077
:06143800EFA3A3A380DF77
:0A3D85003098FDAF99C2987E00222D
:0F3D5D00EFC394304007EF943A50028001C32225
:103D3900EFC394094005EF940E4003BF2003D380DD
:033D490001C32291
:00000001FF
