:0D3A8B002535642E20005B4449525D0A0081
:073AB8007B007A0079602217
:0827B8008F258E248D238C2255
:1027C00075390185263A85273BE4F532F533F53036
:1027D000F5317861E6B4020F78721212F88F2F8EFD
:1027E0002E8D2D8C2C800D7860E6FFE48F2FF52E3A
:1027F000F52DF52C85252B85242A8523298522284E
:10280000AF2BAE2AAD29AC287864E6F55008E6F582
:1028100051853952853A53853B541239048F38E536
:10282000386003022994AB39AA3AA93BAF31AE30E4
:10283000123A258F34E53464E57003022906E53445
:102840007003022906E531240BFFE43530FEAB3975
:10285000AA3AA93B123A258F36E536540E60030298
:1028600029060533E533700205327BFF7A3A798B0E
:1028700085324FF5501217F1E4F5357E00E531252C
:1028800035FFEE3530FEAB39AA3AA93B123A258F17
:10289000371239D90535E535C3940840DEE53630C1
:1028A000E4307535087E00E5312535FFEE3530FE24
:1028B000AB39AA3AA93B123A258F371239D90535D7
:1028C000E535C3940B40DE7BFF7A3A79911217F11C
:1028D00080347F2E1239D97535087E00E5312535D3
:1028E000FFEE3530FEAB39AA3AA93B123A258F37B5
:1028F0001239D90535E535C3940B40DE7F0D123909
:10290000D97F0A1239D974202531F531E43530F5F3
:1029100030D3E53194FEE5309401406FE52B24017E
:10292000F52BE4352AF52AE43529F529E43528F58F
:1029300028C3E52B9525FFE52A9524FEE529952357
:10294000FDE5289522FCAB2FAA2EA92DA82CD31289
:10295000126D4031AF2BAE2AAD29AC287864E6F574
:102960005008E6F551853952853A53853B54123962
:10297000048F38E5386007E4F532F533F534E4F5D3
:1029800030F5318006433280E4F534E534600302EB
:0D29900028268005E4F532F533AE32AF3372
:01299D002217
:0820EE008F258E248D238C2226
:1020F600753D0185283E85293FE4F538F539F536E5
:10210600F537F535F534F533F5327861E6B4020F77
:1021160078721212F88F318E308D2F8C2E800D78BA
:1021260060E6FFE48F31F530F52FF52E85252D85F8
:10213600242C85232B85222AAF2DAE2CAD2BAC2A41
:102146007864E6F55008E6F551853D52853E53859F
:102156003F541239048F3CE53C6003022339AB3D02
:10216600AA3EA93FAF37AE36123A258F3AE53A6412
:10217600E570030222A9E53A70030222A9E5372495
:102186000BFFE43536FEAB3DAA3EA93F123A258F3A
:102196003BE53B540E60030222A90539E53970027E
:1021A600053865277004E538652660030222A9789C
:1021B60061E664047065E5372415FFE43536FEAB49
:1021C6003DAA3EA93F123A25E48F35F534F533F59D
:1021D60032AE34AD33AC3278081212918F358E346C
:1021E6008D338C32E5372414FFE43536FEAB3DAA39
:1021F6003EA93F123A25E5354FF535E534F534E588
:1022060033F533E532F532AF35AE34AD33FC78080D
:102216001212918F358E348D338C32E537241BFFA5
:10222600E43536FEAB3DAA3EA93F123A25E5354FC9
:10223600F535E534F534E533F533E532F532AF35CA
:10224600AE34AD33FC78081212918F358E348D334F
:102256008C32E537241AFFE43536FEAB3DAA3EA99B
:102266003F123A25E5354FF535E534F534E533F5D6
:1022760033E532F532E537240BFFE43536FEAB3D68
:10228600AA3EA93F123A258F3BE53B30E412E535DD
:10229600F535E534F534E533F533E5324410F532FA
:1022A600E4F53A74202537F537E43536F536D3E5C7
:1022B6003794FEE53694014071E52D2401F52DE4B1
:1022C600352CF52CE4352BF52BE4352AF52AC3E518
:1022D6002D9525FFE52C9524FEE52B9523FDE52A76
:1022E6009522FCAB31AA30A92FA82ED312126D402D
:1022F60036AF2DAE2CAD2BAC2A7864E6F55008E649
:10230600F551853D52853E53853F541239048F3C25
:10231600E53C600CE4F535F534F533753280F53A75
:10232600E4F536F5378003E4F53AE53A6003022131
:1023360064800AE4F535F534F533753280E4FFFE42
:10234600FDFCAB35AA34A933A832C312126D70094D
:10235600F535F534F533753280AF35AE34AD33AC83
:012366003244
:012367002253
:10342A004C6F636174696E6720426F6F74205365D5
:10343A0063746F722E2E2E0A0D0052656C617469C8
:10344A00766520536563746F7273203D20256C6422
:10345A000A0D004469736B204572726F72210A0D5E
:10346A000046415431362044657465637465642EA0
:10347A002E2E0A0D0046415433322044657465638A
:10348A007465642E2E2E0A0D00436C757374657272
:10349A00233A2025396C752C2020536563746F728A
:1034AA00233A2025396C752C20205365634F6666B4
:1034BA007365743A20256C750A005072657373201F
:1034CA00537061636520746F20436F6E74696E7503
:1034DA0065206F72205820746F20657869740A001D
:093A1C00AB41AA42A943E4FFFEFC
:0B3A25005306018F828E83120FECFF0E
:013A30002273
:08394700AB41AA42A9437E0036
:0A394F008E4B8F4C8B4D8A4E894F32
:10395900534B01E9254CF9EA354BFA900001120F56
:10396900ECFEAA4EA94F854C82854B83120FECFFC2
:01397900222B
:07371100AB41AA42A943FEEF
:0A3718008E4B8F4C8B4D8A4E894F6B
:10372200E4F553F552F551F550534B01F554AB4DB9
:10373200E54F254CF9E54E354BFAC374039554FF1A
:10374200E49400FEE92FF9EA3EFA120FD3FBAF53DD
:10375200AE52AD51AC5078081212918F538E528DE9
:10376200518C50AF03E5534FF553E552F552E551F5
:10377200F551E550F5500554E554B404B1AF53AEDC
:0537820052AD51AC50F6
:01378700221F
:0413FA008E228F238D
:1013FE00123AB88B448A4589467541018522428549
:10140E0023437BFF7A34792A1217F17550027551F6
:10141E00008541528542538543547F007E007D00F6
:10142E007C00123904123A1CEF64EB6044EF64E95D
:10143E00603FAB41AA42A9437FC67E011237188F87
:10144E00338E328D318C307550027551008541527C
:10145E008542538543541239047BFF7A347944858F
:10146E00335285325185315085304F1217F1123A71
:10147E001CEF64EB6011EF64E9600C7BFF7A34794A
:10148E005D1217F17FF0227F0B123947AB44AA454C
:10149E00A946900004EE8FF012110D900002E41296
:1014AE00105E9000041210D5FFAEF0EF64014E6096
:1014BE0017AB44AA45A9469000027401121019EE0A
:1014CE00C313FEEF13FF80E3AB41AA42A9437F0D86
:1014DE007E00123A25AB44AA45A946EF12104C7F66
:1014EE000E1239478E3C8F3DAB41AA42A9437F1065
:1014FE007E00123A258F40AB41AA42A9437F117E4E
:10150E000012394F8E3E8F3FAB41AA42A9437F1343
:10151E007E0012394FE48F278E26F525F524FFFE27
:10152E00FDFCAB27AA26A925A824C312126D700DA7
:10153E007F201237118F278E268D258C24AB41AA42
:10154E0042A9437F167E0012394FE48F378E36F54F
:10155E0035F534FFFEFDFCAB37AA36A935A834C3EA
:10156E0012126D70227F241237118F378E368D3501
:10157E008C34AB41AA42A9437F2C7E001237188FC0
:10158E003B8E3A8D398C38AB44AA45A9469000045F
:10159E001210D5FDACF024FFFBEC34FFFAE53FAEA4
:1015AE003E7805C333CE33CED8F92BFFEA3EFE127A
:1015BE001080E4FCFDAB44AA45A94690001212121D
:1015CE00D4AF40E4FCFDFEAB37AA36A935A83412E1
:1015DE00113AA804A905AA06AB07E4FCFDEB253DCC
:1015EE00FFEA353CFEED39FDEC38FCAB44AA45A9CB
:1015FE0046900012121304EF2BFBEE3AFAED39F976
:10160E00EC38F8C3E5279BF52BE5269AF52AE52558
:10161E0099F529E52498F528AB44AA45A946120F59
:10162E00D3FBE4FAF9F8AF2BAE2AAD29AC28121190
:10163E00C58F2F8E2E8D2D8C2CE53D2533FFE53C51
:10164E003532FEE43531FDE43530FCAB44AA45A914
:10165E004690000E1212D490000E121304C000C059
:10166E0001C002C003AF40E4FCFDFEAB37AA36A9B1
:10167E0035A83412113AD003D002D001D000EF2B8E
:10168E00FFEE3AFEED39FDEC38FCAB44AA45A94617
:10169E00900012121304EF2BFFEE3AFEED39FDEC23
:1016AE0038FCAB44AA45A94690000A1212D4E47F36
:1016BE00F57EFFFDFCAB2FAA2EA92DA82CC312126E
:1016CE006DAB44AA45A94690000150457402121014
:1016DE005E900003740112105E7BFF7A34796B12F8
:1016EE0017F1AB44AA45A94690000E121304C00090
:1016FE00C001C002C003AF40E4FCFDFEAB37AA360A
:10170E00A935A83412113AD003D002D001D00080EE
:10171E0055740412105E900003740212105E7BFF6B
:10172E007A34797F1217F1E53B24FEFFE53A34FF58
:10173E00FEE53934FFFDE53834FFFCA804C005C0D2
:10174E0006C007AB44AA45A946120FD3FFE4FCFD21
:10175E00FED003D002D00112113AAB44AA45A946DD
:10176E0090000A121304EF2BFFEE3AFEED39FDEC5A
:10177E0038FCAB44AA45A9469000061212D47F004D
:01178E002238
:0834EA008F4F8E4E8D4D8C4C6E
:1034F200123AB88B548A558956E4FFFEFDFCAB4F55
:10350200AA4EA94DA84CC312126D7016AB54AA55FF
:10351200A9569000061212A48F538E528D518C50D0
:10352200804FE54F24FEFFE54E34FFFEE54D34FFAC
:10353200FDE54C34FFFCA804C005C006C007AB542F
:10354200AA55A956120FD3FFE4FCFDFED003D00208
:10355200D00112113AAB54AA55A95690000A12137F
:1035620004EF2BF553EE3AF552ED39F551EC38F5FF
:0935720050AF53AE52AD51AC5004
:01357B00222D
:082ED6008F3C8E3B8D3A8C39D4
:102EDE00123AB88B488A49894A754501853D46851F
:102EEE003E47900003120FECFF900002120FECC34E
:102EFE009FF9AF3CAE3BAD3AAC39F812127EA94AFF
:102F0E0090000E121304EF2BFFEE3AFEED39FDEC9E
:102F1E0038FCAB48AA49A94A9000041210D5F551C5
:102F2E0085F050854552854653854754123904AB7A
:102F3E0048AA49A94A900003120FECF9AF3CAE3BE8
:102F4E00AD3AAC39F8121291C004C005C006C007E4
:102F5E00A94A9000041210D524FFFFE5F034FFFEBD
:102F6E00D003D002D001D000EB5FFFEA5EFE8E43AD
:102F7E008F44AB48AA49A94A900001120FECB40441
:102F8E0019AB45AA46A947123718EFF542EEF5419F
:102F9E00EDF540EC540FF53F8025AB48AA49A94A00
:102FAE00900001120FECB40216AB45AA46A947AF2A
:102FBE0044AE4312394FE48F428E41F540F53FAF98
:072FCE0042AE41AD40AC3FF3
:012FD50022D9
:08299E008F258E248D238C226D
:1029A600123AB88B368A37893875330185263485CD
:1029B6002735E4F530F531F52FF52EF52DF52CE418
:1029C600FFFEFDFCAB2FAA2EA92DA82CC312126D5B
:1029D600704FE52524FEFFE52434FFFEE52334FF92
:1029E600FDE52234FFFCA804C005C006C007AB36CF
:1029F600AA37A938120FD3FFE4FCFDFED003D0029C
:102A0600D00112113AAB36AA37A93890000A121330
:102A160004EF2BF52BEE3AF52AED39F529EC38F5CE
:102A2600287BFF7A34799385255285245185235056
:102A360085224FE52B252FF556E52A352EF555E54A
:102A460029352DF554E528352CF553852F5A852E35
:102A560059852D58852C571217F1E52B252FFFE5A3
:102A66002A352EFEE529352DFDE528352CFCAB361D
:102A7600AA37A9389000041210D5F55185F0508573
:102A86003352853453853554123904AB33AA34A9ED
:102A9600357F007E02123860E52F2401F52FE435DC
:102AA6002EF52EE4352DF52DE4352CF52CAB36AA76
:102AB60037A938120FD3FFE4FCFDFEAB2FAA2EA9CF
:102AC6002DA82CC312126D7022AF25AE24AD23ACF7
:102AD6002285343D85353E122ED68F258E248D23B4
:102AE6008C22E4F52FF52EF52DF52C7BFF7A347923
:102AF600C41217F1123A6B8F32E5326420600BE58F
:102B06003264586005E532B450EAE532B4500BAF92
:102B160025AE24AD23AC22121E16E53264207003C6
:0F2B26000229C57F0D1239D97F0A1239D97F00D4
:012B3500227D
:0A3297008F298D2A8B2B8A2C892D9C
:1032A100D292D293E4F52F20930302335E2092034E
:1032B10002335E123A45E52925E0F52E532EFEC272
:1032C10092052A7530087F01123A06C2931530AF74
:1032D10030E52EA807088002C313D8FC5401F5314C
:1032E100123A00D2933093FDA292E433F532653164
:1032F1006003752F81E530D394004004E52F60C64B
:103301007F01123A06C293D292152AAB2BAA2CA99D
:103311002D120FD3F52E7401252DF52DE4352CF545
:103321002C7F01123A06D2933093FDA292E433F539
:10333100326003752F82E52AD394004004E52F60A3
:10334100827F01123A06C293C2927F01123A06D2DB
:10335100933093FD7F02123A06D2928003752F813A
:02336100AF2F8C
:013363002247
:0A2CAC008F298D2A8B2B8A2C892D8D
:102CB600D292D293E4F52F209303022DBE209203E5
:102CC600022DBE123A45E52925E0F52E432E01C216
:102CD600927530087F01123A06C2931530AF30E57F
:102CE6002EA807088002C313D8FC5401F531123A06
:102CF60000D2933093FDA292E433F532653160033E
:102D0600752F81E530D394004004E52F60C67F011E
:102D1600123A06C293D2927F01123A06D2933093A8
:102D2600FDA292E433F5326003752F82E52AD3942F
:102D3600004069E52F70657530087F01123A06C2BA
:102D4600931530D292E53325E0F5337F01123A062A
:102D5600D2933093FDA292E433F5324233E530D379
:102D6600940050D6AB2BAA2CA92DE53312104C7427
:102D760001252DF52DE4352CF52CE52AB401057534
:102D860031018003E4F5317F01123A06C293E53141
:102D9600123A00D2933093FD152A80907F01123AA1
:102DA60006C293C2927F01123A06D2933093FD7FF8
:0D2DB60002123A06D2928003752F81AF2FD2
:012DC30022ED
:103A45005389F0438901C2A9758CFF758AC3C28D5C
:033A5500D28C22EE
:063A000024FF92927F01F9
:103A0600308C03308DFDC28CBF010A758CFF758A20
:063A1600C3C28DD28C2218
:1037880049324320546573742050726F6772616DBB
:103798000A0D0A0A005344204361726420496E6985
:1037A8007469616C697A6174696F6E202E2E2E209F
:1037B8000A0D004469726563746F727920536563FA
:1037C800746F72203D20256C750A0D00456E746576
:1037D800722053656C656374696F6E203D200049E3
:1037E8006E76616C69642053656C656374696F6E8D
:0337F8000A0D00B7
:0A3AA400122B36D2AF43870180FBDE
:102B3600D2A6D2A5D2A7C2A4C2B2E4F514F515AEA8
:102B460014AF15E4FCFD7B607AEAF9F8C31212575C
:102B5600400A0515E51570E7051480E3D2A4758EC5
:102B66000C758F01123A317BFF7A3779881217F18B
:102B76007F807E1A7D067C0012360DEF6004C2A4AB
:102B860080FE7BFF7A37799D1217F1121AEBEF6000
:102B960004C2A480FE7F007E2D7D317C0112360D9D
:102BA600EF6004C2A480FEE4F514F5157400251543
:102BB600F58274003514F58374FFF074002515F55D
:102BC6008274023514F58374FFF00515E51570025D
:102BD6000514B400D7E514B402D27E007F001213A8
:102BE600FAEF6004C2A480FE123AB89000061212F0
:102BF600A48F0B8E0A8D098C081223687BFF7A3707
:102C060079BB850B52850A5185095085084F1217E5
:102C1600F1AF0BAE0AAD09AC087526007527001298
:102C260027B88E108F117BFF7A3779D41217F112DD
:102C360033648E128F13D3E5139511E51295105058
:102C46005BAF0BAE0AAD09AC088512268513277556
:102C560028007529001220EE8F0F8E0E8D0D8C0C1C
:102C6600E50C54106025E50FF50FE50EF50EE50DA4
:102C7600F50DE50C540FF50CAF0FAE0EAD0DFC12B5
:102C860034EA8F0B8E0A8D098C0822AF0FAE0EAD7B
:102C96000DAC0C75260075270002299E7BFF7A373E
:052CA60079E71217F1AF
:012CAB002206
:10336400E4F52274242522F8E4F60522E522B40BC0
:10337400F274FFF532F531F530F52FE4F522123A07
:103384006B8F23E523C394304012E523D394395043
:103394000B74242522F8A6230522804AE523640819
:1033A4006005E523B47F0B152274242522F8E4F686
:1033B400802AE523640D6005E523B40A1A7B007AAC
:1033C4000079241231B98F328E318D308C2F7F0DDC
:1033D4001239D97F0A800C7F081239D97F2012391B
:1033E400D97F081239D9E522B40A1B7B007A007907
:1033F400241231B98F328E318D308C2F7F0D1239DA
:10340400D97F0A1239D974FFFFFEFDFCAB32AA3111
:10341400A930A82FC312126D7003023382AF32AEEB
:0534240031AD30AC2FBA
:013429002280
:10397A005374617274696E6720436C7573746572EF
:10398A00203D20256C750A0D005374617274696EAE
:10399A006720536563746F72203D20256C750A0D8C
:0139AA00001C
:081E16008F3C8E3B8D3A8C39A4
:101E1E007BFF7A39797A8F528E518D508C4F1217F3
:101E2E00F1AF3CAE3BAD3AAC391234EA8F478E4639
:101E3E008D458C447BFF7A3979938F528E518D501C
:101E4E008C4F1217F1E4F54BF54AF549F5487541FB
:101E5E0001F542C2A5F53DF53EE547254BFFE546AA
:101E6E00354AFEE5453549FDE5443548FC755002D9
:101E7E00755100755201755300755400123904E501
:101E8E004B2401F54BE4354AF54AE43549F549E46E
:101E9E003548F548D2A5C2A6E4F53FF540E54725FD
:101EAE004BFFE546354AFEE5453549FDE5443548E7
:101EBE00FC75500275510075520175530275540030
:101ECE00123904E54B2401F54BE4354AF54AE43565
:101EDE0049F549E43548F548D2A6309003021F7201
:101EEE00C2A7D2917400253EF5827400353DF5836C
:101EFE00E0FF7B007A0079431239ABD2A7053EE5AD
:101F0E003E7002053DD394FFE53D94015003021F40
:101F1E00D6D3E54094FFE53F94014046C291C2A658
:101F2E00E4F53FF540E547254BFFE546354AFEE52E
:101F3E00453549FDE5443548FC755002755100752F
:101F4E005201755302755400123904E54B2401F504
:101F5E004BE4354AF54AE43549F549E43548F54848
:101F6E00D2A6805ED3E54094FFE53F94014048C27F
:101F7E0091C2A6E4F53FF540E547254BFFE5463512
:101F8E004AFEE5453549FDE5443548FC7550027578
:101F9E005100755201755302755400123904E54B08
:101FAE002401F54BE4354AF54AE43549F549E43563
:101FBE0048F548D2A68011D3E53E94FFE53D940145
:101FCE004006E4F541754201E54164017003021ECD
:101FDE00E8309003022069C2A4D29174002540F526
:101FEE00827402353FF583E0FF7B007A007943125D
:101FFE0039ABD2A40540E5407002053FD394FFE50E
:10200E003F940150030220CDD3E53E94FFE53D946D
:10201E00014046C291C2A5E4F53DF53EE547254B8C
:10202E00FFE546354AFEE5453549FDE5443548FCB4
:10203E00755002755100755201755300755400129A
:10204E003904E54B2401F54BE4354AF54AE43549AC
:10205E00F549E43548F548D2A5805ED3E53E94FFB8
:10206E00E53D94014048C291C2A5E4F53DF53EE53B
:10207E0047254BFFE546354AFEE5453549FDE54426
:10208E003548FC7550027551007552017553007537
:10209E005400123904E54B2401F54BE4354AF54A58
:1020AE00E43549F549E43548F548D2A58011D3E524
:1020BE004094FFE53F94014006E4F542754101E589
:1020CE004264017003021FDFE4FF7E02FDFCAB4B96
:0F20DE00AA4AA949A848C312126D5003021EE86E
:0120ED0022D0
:1038BF002570200025322E32625820004164647238
:1038CF002E20202030202031202032202033202095
:1038DF003420203520203620203720203820203952
:1038EF00202041202042202043202044202045201A
:0538FF0020460A0D0047
:103699008B418A4289438B4F8A5089517BFF7A3803
:1036A90079BF1217F1E4F544AB41AA42A943854415
:1036B90082758300120FECF5457BFF7A3879C3F5E3
:1036C9004F1217F10544E544C3941040DBE4F54477
:1036D900AB41AA42A943854482758300120FECF5D8
:1036E90045C394204007E545D3947F400375452E93
:1036F900AF451239D90544E544C3941040D27F0D32
:083709001239D97F0A0239D9F7
:0A3860008E398F3A8B3B8A3C893D7C
:10386A008B3E8A3F8940AF0153070F7E00C3E49F16
:10387A00FFE49EFEEF2540F540EE353FF53F7BFF26
:10388A007A3879CB1217F1AB3EAA3FA94012369982
:10389A0074102540F540E4353FF53FE53D253AF9FA
:1038AA00E53C3539FA8A838982C3E5409582E53F4A
:0438BA00958340D3DF
:0138BE0022E7
:083904008F4F8E4E8D4D8C4C4F
:10390C00E4FF123ABFAB07C294AF4FAE4EAD4DAC15
:10391C004CA8031212918F598E588D578C567F11CB
:10392C00122FE3EF700DAB52AA53A954AF51AE5006
:0A393C001230D2D294EF60027FF047
:01394600225E
:1025C8005344204361726420496E697469616C697F
:1025D8007A6174696F6E202E2E2E200A0D00434DED
:1025E80044302073656E74202E2E2E2000526573A1
:1025F800706F6E7365203D2025322E3262580A0DA9
:1026080000434D44382073656E74202E2E2E200012
:10261800526573706F6E7365203D200025322E322F
:102628006258200056657273696F6E2031205344DA
:1026380020436172642064657465637465642E0A5E
:102648000D005374616E646172642043617061634C
:102658006974792043617264206465746563746584
:10266800642E0A0D0056657273696F6E203220530E
:102678004420436172642064657465637465642EE4
:102688000A0D00434D4435382073656E74202E2E94
:102698002E200041434D4434312073656E74202E42
:1026A8002E2E200048696768204361706163697451
:1026B8007920436172642044657465637465640AB3
:1026C8000D005374616E64617264204361706163CC
:1026D8006974792043617264204465746563746524
:1026E800640A0D00434D4431362073656E74202E04
:1026F8002E2E2000526573706F6E7365203D202565
:10270800322E326258200A0D00426C6F636B2073C0
:10271800697A652073657420746F203531322062C0
:10272800797465730A0D0054696D656F7574204579
:1027380072726F7200496C6C6567616C20436F6DD3
:102748006D616E640A0D00526573706F6E7365205B
:102758004572726F72004461746120546F6B656ECC
:10276800204572726F7200496E636F6D7061746993
:10277800626C6520566F6C746167650043617264B2
:1027880020697320496E6163746976650053504906
:10279800206F722054696D656F7574204572726F71
:1027A8007200556E6B6E6F776E204572726F720095
:0D2FD600C294E4F559F558F557F5567F3AC9
:022FE3008F5508
:102FE500E4F55BE555C3944040030230CCE5554418
:102FF50040F55A7B007A00795CFF1239ABEF701A05
:10300500AF59AE58AD57AC56781812127E8F5A7B11
:10301500007A00795C1239AB8003755B87E55B70DC
:103025002CEF7029E559F559E558F558E557F55749
:10303500E4F556AF59AE58AD57AC56781012127E1E
:103045008F5A7B007A00795C1239AB8003755B87F8
:10305500E55B702AEF7027E559F559E558F558E411
:10306500F557F556AF59AE58AD57AC56780812120C
:103075007E8F5A7B007A00795C1239AB8003755BD1
:1030850087E55B7015EF7012E559FFE48F5AFB7AFF
:1030950000795CAF5A1239AB8003755B87E55B70CD
:1030A50029EF7026E5557005755A95800DE555B4DF
:1030B5000805755A878003755A017B007A00795C8B
:0C30C500AF5A1239AB8003755B82AF5B21
:0130D10022DC
:07357C00FB7A0079257F01B5
:083583008F348B358A3689373D
:10358B00E4F5397B007A00793A7FFF1239AB0538C5
:10359B00E53A30E707E5386003EF60E7EF60057564
:1035AB0039878050E53870057539818047AB35AA6E
:1035BB0036A937E53A12104CE53A600464017031D4
:1035CB00E534D39401402D753801E538C39534505B
:1035DB00237B007A00793A7FFF1239ABAB35AA36E1
:1035EB00A937853882758300E53A12105E0538805D
:1035FB00D97539837B007A00793A7FFF1239ABAFEB
:01360B003985
:01360C00229B
:0A30D2008E558F568B578A58895986
:1030DC00E4F55CF55DF55A7B007A00795B7FFF12B5
:1030EC0039AB055DE55D7002055CE55B30E709E534
:1030FC005D455C6003EF60DFEF60028037E55D45A6
:10310C005C7002803AE55B60030231A8F55CF55D0A
:10311C007B007A00795B7FFF1239AB055DE55D7052
:10312C0002055CE55BB4FF09E55D455C6003EF609F
:10313C00DFEF6005755A878066E55D455C70057547
:10314C005A81805BE55B64FE704DF55CF55DC3E513
:10315C005D9556E55C955550267B007A00795B7F32
:10316C00FF1239ABAB57AA58A959855D82855C8390
:10317C00E55B12105E055DE55D70D3055C80CF7B71
:10318C00007A00795B7FFF1239AB7B007A00795BA8
:10319C007FFF1239AB8008755A848003755A837B84
:0C31AC00007A00795B7FFF1239ABAF5A4C
:0131B80022F4
:101AEB00E4F523781D76FFD2947BFF7A2579C81213
:101AFB0017F1E4F5227B007A00792D7FFF1239ABC9
:101B0B008F240522E522C3940A40EAC2A77BFF7A01
:101B1B002579E61217F1C294E4F559F558F557F506
:101B2B0056FF122FE38F24E524701712357C8F2478
:101B3B00D294D2A77BFF7A2579F585254F1217F121
:101B4B008006D294D2A7C2A4E5246002F523E52334
:101B5B006003021C05C2A77BFF7A2679091217F1D5
:101B6B00C294E47559AA755801F557F5567F0812BA
:101B7B002FE38F24E524704BFB7A0079257F051228
:101B8B0035838F24D294D2A77BFF7A26791812172C
:101B9B00F1E4F5227BFF7A26792474252522F8E6D9
:101BAB00F54F1217F10522E522C3940540E67F0D90
:101BBB001239D97F0A1239D9E52964AA600B752429
:101BCB00838006D294D2A7C2A4E5246020B48218E5
:101BDB00E4F523781D76097BFF7A26792C1217F111
:101BEB007BFF7A26794A800F852423800D781D761A
:101BFB00027BFF7A26796D1217F1E523706DC2A770
:101C0B007BFF7A26798B1217F1122FD68F24E524BE
:101C1B00704DFB7A0079257F051235838F24D29482
:101C2B00D2A77BFF7A2679181217F1E4F5227BFFF6
:101C3B007A26792474252522F8E6F54F1217F1053B
:101C4B0022E522C3940540E67F0D1239D97F0A1293
:101C5B0039D9E52754FC64FC600B7524858006D2CA
:101C6B0094D2A7C2A4E5246002F523E52360030206
:101C7B001D25781DE6B4020CE4F531F530F52F7512
:101C8B002E408009E4F531F530F52FF52EE4F532D1
:101C9B00F533C2A77BFF7A26799B1217F1C294C248
:101CAB00B5E4F559F558F557F5567F37122FE38FF5
:101CBB0024E524700512357C8F24D2B5E52564010B
:101CCB006004E5257013853159853058852F57856C
:101CDB002E567F29122FE38F24E524700312357CB7
:101CEB000533E5337002053245327003752481E507
:101CFB002530E004E52460A7E5247012D294D2A726
:101D0B007BFF7A2579F585254F1217F18006D29442
:101D1B00D2A7C2A4E5246002F523E5236003021ECB
:101D2B000B781DE664026003021E0BC2A77BFF7AD1
:101D3B0026798B1217F1122FD68F24E5246003021C
:101D4B001DFAFB7A0079257F051235838F24D294F7
:101D5B00D2A77BFF7A2679181217F1E4F5227BFFC5
:101D6B007A26792474252522F8E6F54F1217F1050A
:101D7B0022E522C3940540E67F0D1239D97F0A1262
:101D8B0039D9E52620E7057524868069E52654C0F8
:101D9B00FFBFC00CE4781DF67BFF7A2679AC804A36
:101DAB00781D76097BFF7A2679CA1217F1C2A77BB9
:101DBB00FF7A2679EC1217F1C294E4F559755802A3
:101DCB00F557F5567F10122FE38F24E5247026125A
:101DDB00357C8F24D294D2A77BFF7A2679FC85257C
:101DEB004F1217F17BFF7A2779111217F18006D268
:101DFB0094D2A7C2A4E5246007F523AF231237FBC7
:0A1E0B00E5236004FF1237FBAF234C
:011E150022AA
:053ABF00781DE6FF2266
:1037FB008F34E534B481087BFF7A27792F8052E52B
:10380B0034B482087BFF7A27793D8045E534B48355
:10381B00087BFF7A27794F8038E534B484087BFF27
:10382B007A27795E802BE534B485087BFF7A27797C
:10383B006F801EE534B486087BFF7A27798480116C
:10384B00E5347BFFB487067A27799580047A27794C
:05385B00AA1217F12282
:10360D00E4F522AB07AA06A905A804FF7E407D19A3
:10361D007C011211C5EFD39402500575C3708069FA
:10362D00EFD39402400BEFD39404500575C3718012
:10363D0058EFD39404400BEFD39408500575C37223
:10364D008047EFD39408400BEFD39410500575C30A
:10365D00738036EFD39410400BEFD3942050057543
:10366D00C3F08025EFD39420400BEFD39440500549
:10367D0075C3F18014EFD39440400BEFD394805079
:0B368D000575C3F2800375220FAF2209
:01369800220F
:1039AB00E4FE8FC5AFC40EEF54F07003EE70F5EE6E
:1039BB006012EF54707004E5C5800274FF12104C56
:0D39CB00E4FE800774FF12104C7E80AF06F2
:0139D80022CC
:102DC4004F75747075742066726F6D20494420725B
:102DD400656769737465723A2025322E3262582011
:102DE4000A0D0053544130313320536F66745665D5
:102DF4007273696F6E3A2025322E326258200A0DA2
:102E040000466972737420636F6E666967757261D8
:102E140074696F6E2066696C652073656E742E2EFE
:102E24002E0A0D004E756D626572206F6620766104
:102E34006C756573207772697474656E3A202564C5
:102E4400200A0D0053656E7420746F205354413072
:102E540031333A2025322E326258202025322E3248
:102E64006258200A0D004F75747075742066726F75
:102E74006D2072656769737465723A2025322E324B
:102E84006258202025322E3262582025322E32629A
:102E940058200A0D00436F6E666967757261746924
:102EA4006F6E20436F6D706C6574650A0D00545528
:102EB400060B525165645061050D180C46487D722D
:102EC40007100902B80000000605A1000405070761
:022ED4000001FB
:10236800C2B278177601752332D2B2C2B47B007A32
:102378000079177D017F431232978F22D52302C23D
:10238800A6E5226004E52370E4E523602E75233278
:102398007B007A00791A7D017F43122CAC8F2215BD
:1023A80023E5226004E52370E7E523600E7BFF7ACE
:1023B8002D79C4781AE6F54F1217F1D2B4781AE6D7
:1023C80064AC60030225C578177671FB7A0079172B
:1023D8007D017F431232978F227B007A00791A7D24
:1023E800017F43122CAC8F227BFF7A2D79E7781A74
:1023F800E6F54F1217F1E4F527F5287524FF752542
:1024080000752603AB24AA25A9268528828527835B
:10241800120FEC7817F60528E52870020527F582D3
:10242800852783120FEC7818F60528E52870020531
:102438002718E6F4601F7523327B007A0079177D30
:10244800027F431232978F22D52302C2A6E522606B
:1024580004E52370E47817E6F46004E52370A57BAF
:10246800FF7A2E79051217F17BFF7A2E7928E52756
:10247800C313F54FE52813F5501217F1E4F527F5C6
:10248800287524FF75250F7526A1AB24AA25A92632
:10249800852882852783120FEC7817F60528E5280A
:1024A80070020527F582852783120FEC7818F60548
:1024B80028E5287002052718E6F4601F7523327B8B
:1024C800007A0079177D027F431232978F22D52335
:1024D80002C2A6E5226004E52370E47817E6F460FA
:1024E80004E52370A5781776717B007A0079177D4B
:1024F800017F431232978F227B007A00791A7D017F
:102508007F43122CAC8F227BFF7A2D79E7781AE66D
:10251800F54F1217F1E4F527F52874B22528F5824E
:10252800742E3527F583E4937817F674C42528F5B7
:1025380082742E3527F583E49308F67523327B00E1
:102548007A0079177D027F431232978F22D52302B2
:10255800C2A6E5226004E52370E47BFF7A2E794861
:102568007817E6F54F08E6F5501217F17B007A0068
:1025780079177D017F431232978F227B007A007989
:102588001A7D017F43122CAC8F227BFF7A2E796A49
:102598007817E6F54F781AE6F5508522511217F1AB
:1025A8000528E52870020527C39412E527940050F2
:0F25B800030225227BFF7A2E79991217F1AF22A9
:0125C70022F1
:103A310053873F759850E4F59B759AC4759B1ED2C8
:043A410099C2AC2258
:100003003A012A04280029002000210022002300AD
:10001300240025002600270028012802218F280319
:100023002100280428052806280728082809280A63
:10003300280B280C20802190280D20002100280E59
:1000430020812191280F20002192281021002811BE
:1000530021932812210028132814281520822816FA
:1000630020002817281828192194281A2195281BBD
:100073002196281C2100281D2083281E2000281FCC
:1000830021972820210028212822282328242825D5
:100093002826282728282829282A2084282B2000B6
:1000A300282C282D282E282F283028312832208547
:1000B3002833200028342835283628372198283833
:1000C30021002839283A283B283C283D283E283F50
:1000D30028402841284228432844284528462847C1
:1000E30028482849284A284B284C284D284E284F71
:1000F3002850285128522853285428552856285721
:1001030028582859285A285B285C285D285E285FD0
:1001130028602861286221992863210028642865C2
:100123002866286728682869286A286B286C286D40
:10013300286E286F287028712872287328742875F0
:100143002876287728782879287A287B287C287DA0
:10015300287E287F28802881288228832884288550
:100163002886288728882889288A288B288C288D00
:10017300288E288F289028912086289220872893DC
:100183002000289428952896289728982899289A13
:10019300289B289C289D289E289F219A28A02100DF
:1001A30028A128A228A328A428A528A628A728A8E8
:1001B30028A928AA28AB28AC28AD28AE28AF28B098
:1001C30028B128B228B328B428B528B628B728B848
:1001D30028B9208828BA200028BB208928BC200001
:1001E30028BD28BE28BF28C028C128C228C3219BF8
:1001F30028C4210028C528C628C728C828C928CA52
:1002030028CB28CC28CD28CE28CF28D028D128D237
:1002130028D328D428D528D628D728D828D928DAE7
:1002230028DB28DC28DD28DE28DF28E028E1208AF7
:1002330028E2208B28E3200028E428E528E628E7A5
:1002430028E828E928EA28EB28EC28ED28EE28EF0F
:1002530028F028F128F228F328F428F528F628F7BF
:1002630028F8208C28F92000219C28FA219D28FBBE
:10027300208D219E28FC208E219F28FD2000210017
:1002830028FE28FF2A012800220123952489250717
:1002930026A42707280121C72200238026C4270C70
:1002A30028022009211C220426AA270A2803200049
:1002B3002100220023A626A02707280428052005BD
:1002C300238426B42709280620002203230024813F
:1002D30025C026AB270A280721AE220023952489AF
:1002E300250726A42700280821482201238026C4A5
:1002F300270C280920092104220426AA270A280AF0
:1003030020002100220023A826A42707280B280C5D
:1003130021402220238026C4270C280D222426C610
:10032300280E219E220026C8280F2009210222140C
:1003330026AA270A2810200521002200238426B498
:1003430027092811200021012300240125C026AB01
:10035300270A281221C3239524892507262027004D
:100363002813200321C223832626270D281421B313
:0D03730022082815200021C622002395260F
:100380000027082816210023002496250326AA27E3
:100390000A2817204221B6238024892507281820FF
:1003A0000021002394260E2819200F238426B42729
:1003B00009281A2000239326A82703281B2628276C
:1003C00000281C21012300240125C026AB270A2870
:1003D0001D21C523952489250726202700281E21B5
:1003E0000023942600270A281F260E2820200321F8
:1003F00079220123832626270D2821213228222035
:1004000000210422002380240025FC26AA270A2894
:1004100023210023002500282421A3220D2380244A
:100420009E253B2825204221572201248925072883
:100430002620002143220D240025382827210822C8
:10044000982395248925072624270028282042213F
:10045000932201238026AA270A28292003217E220D
:100460000423832626270D282A200021B0220023DA
:100470009526A02707282B21002300240C250426DD
:10048000AA270A282C21022380248625C326AB28EC
:100490002D2042219722012489250726AA282E20D3
:1004A0000021002200241F2504282F21B223952497
:1004B0008925072620270428302042218B22042367
:1004C0008026AA270A2831200021B1220023952660
:1004D000A0270728322003217522042383262627FC
:1004E0000D2833200521002200238426B427092863
:1004F00034200021602300240125C026AB270A28D0
:1005000035210822982395248925072624270028A9
:100510003621BC2200283721A3220D2300240125E7
:10052000C026AB270A28382160220023802400251A
:100530003826AA28392106229823952489250726BA
:10054000242700283A21BE2200283B200521002331
:100550008426B42709283C2000216023002401259B
:10056000C026AB270A283D21422201239524892554
:100570000726242700283E210C229826A427072896
:100580003F21082840216022002300240125C026A5
:10059000AB270A2841210C22982395248925072678
:1005A0002427002842200521002200238426B42786
:1005B000092843200023802400251026AB270A2881
:1005C0004421222201239524892507262427002857
:1005D000452100220023002404251226AA270A28E8
:1005E00046200321D4220523832489250726262794
:1005F0000D28472000216022002300240125C02669
:10060000AB270A284821B3239524892507260027EC
:10061000082849210023002409250026AA270A28A2
:100620004A210223802486253B284B204221DD22BB
:100630000524892507284C200021002200241F259D
:1006400000284D21B323952489250726202700283B
:100650004E210023002497250326AA270A284F208D
:100660004221E222052380248925072850200021E9
:100670001022002300248025CC26AB285121002203
:100680004023B42489250726AA27042852220023C0
:10069000B0269227092853211422012395260027EA
:1006A000082854214823A4262A270028552100225F
:1006B0000023002409250026AA270A2856210823FA
:1006C000802486253B285720422111220724892592
:1006D000072858200021002200241F250028592126
:1006E00014220123952489250726202700285A2132
:0D06F0001626022709285B210022002300A6
:1006FD002480254826AA270A285C23A024892507BB
:10070D0026142709285D2480255026A42704285E59
:10071D00211622012395248925072700285F21040E
:10072D0022002300249C257826AA270A286021432D
:10073D00220D240125C426AB286121032200241596
:10074D00286221002400250026AA2863215E239516
:10075D002489250726102709286421032300241541
:10076D0025C426AB270A28652100238024002506F1
:10077D0026AA2866248F25E326AB2867204221CDA3
:10078D0022072489250726AA286820002160220037
:10079D002300240125C026AB286921002380248F46
:1007AD00250326AA286A204221DD22072489250750
:1007BD00286B20002143220D2300240125C026ABE8
:1007CD00286C210022002400250426AA286D200370
:1007DD00217F22012383248925072626270D286EB4
:1007ED002162286F200521002200238426B42709C9
:1007FD002870200021062395260027082871210145
:10080D0023002497253B26AA270A28722042210E71
:10081D00220823802489250728732003213C220BDD
:10082D0023832626270D28742000210322002395DB
:10083D0026022708287521272300248125C426ABED
:10084D00270A2876210023802409254826AA2877FF
:10085D002158223423A324892507262A2700287806
:10086D002100220023A026002709287921072380B3
:10087D002403253926AA270A287A21042300241CBB
:10088D002538287B2107238024832539287C2103C3
:10089D0023952489250726022708287D2127230053
:1008AD00248125C426AB270A287E21002380240914
:1008BD00254826AA287F2158223423A324892507D9
:1008CD00262A27002880210622002300248125C006
:1008DD00269327012881210023802489254826AAD3
:1008ED00270A28822002216622082300240025667B
:1008FD0028832000210022002380241F2502288424
:10090D0021062489250726DC270C2885210023AA0A
:10091D0026AA270A288623B626002708288723809B
:10092D002486253B26AA270A288821052489250700
:10093D0026DC270C2889210023AA26AA270A288A23
:10094D0023B626002708288B23802486253B26AA3C
:10095D00270A288C2042217B220824892507288DEF
:10096D00200021002200230024012582288E21054C
:10097D00248125C226AB288F2003219322082383AF
:10098D00248925072626270D2890200021052200E1
:10099D002300248125C026132701289121002380BF
:1009AD002489254826AA270A28922002217E22087A
:1009BD002300240025662893200021002200238097
:1009CD00241F2502289421052489250726DC270CC0
:1009DD002895210023AA26AA270A289623B62600A1
:1009ED002708289723802486253B26AA270A28989E
:1009FD0021052489250726DC270C2899210023AA07
:100A0D0026AA270A289A2380241F2502289B210124
:100A1D002300248125C226AB289C20032193220884
:100A2D002383248925072626270D289D20002104B0
:100A3D002200239526122708289E216023C426AA6A
:100A4D002704289F210023C02600270928A0204223
:100A5D0021CB2208238026AA270A28A12070215401
:0D0A6D0022B823952612270828A220022176
:100A7A00CC2208238026AA270A28A3200321CA22D7
:100A8A000F23832626270D28A420002100220023D5
:100A9A0000248C250C26AA270A28A52104248225AD
:100AAA007828A6210023802489254826122704288D
:100ABA00A7200321DE220F238325072626270D28B8
:100ACA00A82000210122002300249C257826AA2799
:100ADA000A28A9210023802481254028AA2003214D
:100AEA00CF220F2383248925072626270D28AB200A
:100AFA0070210822B8239526A0270428AC200321B8
:100B0A00D4220F23832626270D28AD2127220B283E
:100B1A00AE2070216322B823952612270828AF2019
:100B2A0000210122002380248625CB26AB270A2810
:100B3A00B0204221DD22082489250726AA28B120CF
:100B4A000021182280239526A4270028B2200321F9
:100B5A00D9220F23832626270D28B32070210A22A3
:100B6A00B8239526A0270028B4200221E0220823D2
:100B7A008026AA270A28B52070210A22B82395269A
:100B8A00A0270028B621542602270828B7200021CA
:100B9A0018228026A4270028B821002200238024B6
:100BAA0080254826AA270A28B92070215E22B82360
:100BBA0095248925072612270828BA200021002211
:100BCA000023802409254B26AA270A28BB20702146
:100BDA005F22B82395248925072610270828BC20D8
:100BEA0000210022002300241C258326AB270A2883
:100BFA00BD2003213222092383248925072626279B
:100C0A000D28BE20002100220023002482258C26E4
:100C1A00AB270A28BF2003212522092383248925FB
:100C2A00072626270D28C0204221BC238026AA2772
:100C3A000A28C12000210122002300240125C02600
:100C4A00AB28C22070210F22B823952489250726B4
:100C5A0020270028C3200321E3220F2383262627E7
:100C6A000D28C4200521002200238426B427092840
:100C7A00C52000210323952614270828C621A62368
:100C8A00A4262A270528C7210023A02644270928A5
:100C9A00C82118226D2380249E257B26AA270A288C
:100CAA00C920422113220B2489250728CA200021A2
:100CBA00AE220023952624270028CB2100220323D5
:100CCA00802487257B26AA270A28CC20422116229F
:100CDA000B2489250728CD200021AE220023952642
:100CEA0024270028CE20052100238426B42709289A
:100CFA00CF2003210D220B23832626270D28D0205F
:100D0A000021002200230024802602270028D12364
:100D1A008024092548261E28D22158223423332428
:100D2A00802507262A28D32100220023002680278F
:100D3A001028D421102363262A270028D52100232E
:100D4A006026A8271228D621AF224C230026C827BE
:100D5A000C28D7210022002680270528D8238024A2
:100D6A0086253B261E270028D92042211C220E2335
:100D7A00002480250728DA20002135222926C427C5
:100D8A000C28DB2002211D220E261E270028DC202B
:100D9A0000217F223426C4270C28DD2100220023CB
:100DAA0090249F25042610270A28DE230024842560
:100DBA00002680271028DF210623632480250726A2
:100DCA002A270028E021002380248926AA270A2826
:100DDA00E12005238426B4270928E2207021612214
:0D0DEA00B823952612270828E320002101D8
:100DF70022002380248625C326AB270A28E4204225
:100E070021CE220F2489250726AA28E52070215004
:100E170022B823952612270828E62005210022005C
:100E2700238426B4270928E72070216422B8239554
:100E37002612270828E82000210122002380248683
:100E470025C326AB270A28E9204221D3220F24896C
:100E5700250726AA28EA2070215122B823952612B1
:100E6700270828EB200521002200238426B4270920
:100E770028EC2070216522B823952612270828ED33
:100E87002000210122002380248625C326AB270AC0
:100E970028EE204221D8220F2489250726AA28EFE9
:100EA7002070215222B823952612270828F0200502
:100EB70021002200238426B4270928F1207021610C
:100EC70022B823952602270828F2200021012200B4
:100ED7002380248625C326AB270A28F3204221DD59
:100EE700220F2489250726AA28F42070215022B82A
:100EF70023952602270828F52005210022002384B0
:100F070026B4270928F6200021012380248625CB33
:100F170026AB270A28F7204221E1220F248925073B
:100F270026AA28F82000210222002300248125C4B4
:100F370026AB28F9210023802489254826AA28FAE8
:100F470020052384250726B4270928FB2070214E76
:100F570022B823952610270828FC2000210022000C
:100F67002380248625C326AB270A28FD204221E7B4
:100F7700220F2489250726AA28FE200021BB22004C
:100F870023952620270028FF20052100238426B447
:100F970027092A081001FFFFFFFF3A00643A65BBE3
:100FA700083A09BB50105267517705A1180454013C
:100FB70055210700060C0B03501051005204610F16
:0C0FC7006455655505A11804FFFFFFFFED
:03000000023A9829
:0C3A9800787FE4F6D8FD758175023AA431
:100FD300BB010689828A83E0225002E722BBFE021C
:090FE300E32289828A83E493224F
:100FEC00BB010CE58229F582E5833AF583E02250BA
:100FFC0006E92582F8E622BBFE06E92582F8E22204
:0D100C00E58229F582E5833AF583E493221D
:10101900BB010FF8E58229F582E5833AF583E028DB
:10102900F0225009C58229F8E58226F622BBFE097D
:10103900C58229F8E22582F222F8EA2583F583E9B7
:03104900932822C7
:10104C00BB010689828A83F0225002F722BBFE0183
:02105C00F3227D
:10105E00F8BB010DE58229F582E5833AF583E8F0C8
:10106E00225006E92582C8F622BBFE05E92582C874
:02107E00F2225C
:10108000BC000BBE0029EF8DF084FFADF022E4CC54
:10109000F875F008EF2FFFEE33FEEC33FCEE9DEC1D
:1010A000984005FCEE9DFE0FD5F0E9E4CEFD22ED63
:1010B000F8F5F0EE8420D21CFEADF075F008EF2FAD
:1010C000FFED33FD4007985006D5F0F222C398FD9E
:0510D0000FD5F0EA223B
:1010D500BB0110E58229F582E5833AF583E0F5F059
:1010E500A3E0225009E92582F886F008E622BBFE36
:1010F5000AE92582F8E2F5F008E222E5832AF5837C
:08110500E993F5F0A3E9932240
:10110D00F8BB0111E58229F582E5833AF583E8F014
:10111D00E5F0A3F0225009E92582C8F608A6F022D1
:0D112D00BBFE09E92582C8F2E5F008F222B8
:10113A00E88FF0A4CC8BF0A42CFCE98EF0A42CFC54
:10114A008AF0EDA42CFCEA8EF0A4CDA8F08BF0A4D2
:10115A002DCC3825F0FDE98FF0A42CCD35F0FCEB31
:10116A008EF0A4FEA9F0EB8FF0A4CFC5F02ECD39F6
:0F117A00FEE43CFCEAA42DCE35F0FDE43CFC2263
:1011890075F008758200EF2FFFEE33FECD33CDCC1D
:1011990033CCC58233C5829BED9AEC99E5829840A0
:1011A9000CF582EE9BFEED9AFDEC99FC0FD5F0D67D
:1011B900E4CEFBE4CDFAE4CCF9A88222B800C1B9A7
:1011C9000059BA002DEC8BF084CFCECDFCE5F0CBE5
:1011D900F97818EF2FFFEE33FEED33FDEC33FCEB1E
:1011E90033FB10D703994004EB99FB0FD8E5E4F9D9
:1011F900FA227818EF2FFFEE33FEED33FDEC33FCC6
:10120900C933C910D7059BE99A4007EC9BFCE99AB9
:10121900F90FD8E0E4C9FAE4CCFB2275F010EF2FFE
:10122900FFEE33FEED33FDCC33CCC833C810D707FE
:101239009BEC9AE899400AED9BFDEC9AFCE899F839
:0E1249000FD5F0DAE4CDFBE4CCFAE4C8F922CC
:10125700EB9FF5F0EA9E42F0E99D42F0EC6480C80E
:0612670064809845F022AE
:10126D00EB9FF5F0EA9E42F0E99D42F0E89C45F0D7
:01127D00224E
:10127E00E8600FECC313FCED13FDEE13FEEF13FF4E
:03128E00D8F12272
:10129100E8600FEFC333FFEE33FEED33FDEC33FCBB
:0312A100D8F1225F
:1012A400BB010DE58229F582E5833AF583021342F9
:1012B4005007E92582F80212F8BBFE07E92582F8F7
:1012C40002134EE58229F582E5833AF58302135A27
:1012D400BB010DE58229F582E5833AF5830213AC5F
:1012E4005007E92582F80213A0BBFE07E92582F81E
:0412F4000213B82207
:0C12F800E6FC08E6FD08E6FE08E6FF2222
:10130400BB010DE58229F582E5833AF58302137763
:101314005007E92582F802136ABBFE07E92582F823
:10132400021383E58229F582E5833AF5830213905B
:1039D900EFB40A07740D1239E4740A309811A899E2
:1039E900B8130CC2983098FDA899C298B811F6304E
:0739F90099FDC299F5992226
:10178F00E55B244FF8E6055B22784C300702784F73
:10179F00E475F0011213C4020FD32000EB7F2ED299
:1017AF00008018EF540F2490D43440D4FF30040B32
:1017BF00EF24BFB41A0050032461FFE55C600215EB
:1017CF005C055FE55F7002055E30070D784CE475D0
:1017DF00F0011213C4EF02104C0239D97403D2076F
:1017EF008003E4C207F55B8B4C8A4D894EE4F55CB0
:1017FF00F55EF55FE55C60077F201217CA80F5750F
:10180F005DFFC201C200C202C203C205C206C20806
:10181F00121798FF700D3007057F001217DBAF5FAF
:10182F00AE5E22B4255FC2D5C204121798FF24D032
:10183F00B40A00501A75F00A785C30D50508B6FF67
:10184F000106C6A426F620D5047002D20380D9243F
:10185F00CFB41A00EF5004C2E5D2040219DBD20153
:10186F0080C6D20080C0D20280BCD2D580BAD20549
:10187F0080B47F201217CA2002077401B55C0040A4
:10188F00F112178FFF1217CA021803D208D206805F
:10189F009512178FFB12178FFA12178FF94A4B7089
:1018AF000679AC7A1A7BFF20022EE55C602A7E0057
:1018BF008E82758300120FEC60060EEE655D70F080
:1018CF00C2D5EBC0E0EAC0E0E9C0E0EE121A22D0C8
:1018DF00E0F9D0E0FAD0E0FB120FD3FF60AAEBC023
:1018EF00E0EAC0E0E9C0E01217CAD0E02401F9D065
:1018FF00E03400FAD0E0FBE55D0460DCD55DD98013
:10190F00877BFF7A1A791ED202809C791080027928
:10191F0008C206C2088008D2D5790A8004790AC2A3
:10192F00D5E55D047002F55DE4FAFDFEFF12178F39
:10193F00FC7B0820011312178FFD7B1030000A1259
:10194F00178FFE12178FFF7B20EC3382D592D55065
:10195F0013C3E43000069FFFE49EFEE42001039DC5
:10196F00FDE49CFCE4CBF8C201EC700CCFCECDCCE7
:10197F00E824F8F870F38017C3EF33FFEE33FEED72
:10198F0033FDEC33FCEB33FB994002FB0FD8E9EB53
:10199F00300105F8D0E0C448B201C0E00AEC4D4E6A
:1019AF004F78207B0070C2EAB55D0040BCC0E012EA
:1019BF001A24D0F0D0E0200104C4C0E0C4B201C0AA
:1019CF00F01217B3D0F0D5F0EB0218031213D4189E
:1019DF00A053191A5818714C186D42191E4F192619
:0F19EF0044192649188643192C5519104619100A
:1019FE00451910471ACC5018752D18792E189C2B96
:101A0E00187D23189A201AB52A1835480000189404
:101A1E003F3F3F00790AA2D5200314300509B910C3
:101A2E00020404B9080104A2D520060250010420C4
:101A3E0002689202B55C005034C0E07F203003197A
:101A4E007F30A20272067205500F121A7BC202C2BA
:101A5E0006C205C2087F30800F300503E9C0E012D0
:101A6E0017CA300503D0E0F9D0E0B55CCC300517CD
:101A7E007F30B9100C1217CA7F583004077F788058
:101A8E0003B908031217CA3002057F2D0217CA7F49
:101A9E00202008F87F2B2006F322920280CF286E9A
:101AAE00756C6C2900D20112178F3001F8C20178C3
:101ABE005C30D50108F60218352D504349581217DF
:101ACE008F2403B405004001E4901AC7931217BB8C
:0D1ADE00743A1217BBD203755C0402191A8A
:103A6B0010090B123AAEBF0D027F0A0239D9AF16FD
:013A7B002228
:1031B9008B338A348935AB33AA34A935120FD3FF3F
:1031C900123A58500D74012535F535E43534F53486
:1031D90080E4D200AB33AA34A935120FD3FF642B94
:1031E9006004EFB42D1BAB330535E535AA34700205
:1031F900053414F9120FD3642D6003D38001C392EF
:1032090000E4F539F538F537F536AB33AA34A93585
:10321900120FD3FF123A7C505CE47F0AFEFDFCAB2F
:1032290039AA38A937A83612113AC8ECC8EDC0E056
:10323900EEC0E0EFC0E0AB33AA34A935120FD3FFDB
:103249003395E0FEEF24D0FFEE34FFFEE4FCFDD021
:10325900E0FBD0E0FAD0E0F9EB2FF539EA3EF5389A
:10326900ED39F537EC38F53674012535F535E435A2
:1032790034F534809530000AAF39AE38AD37AC3605
:0E328900800BAF39AE38AD37AC36121334229D
:0E133400C3E49FFFE49EFEE49DFDE49CFC22CA
:0C134200E0FCA3E0FDA3E0FEA3E0FF221E
:0C134E00E2FC08E2FD08E2FE08E2FF22DB
:10135A00E493FC740193FD740293FE740393FF22D9
:0D136A00E6FB08E6F908E6FA08E6CBF822F3
:0C137700E0F8A3E0F9A3E0FAA3E0FB22F9
:0D138300E2FB08E2F908E2FA08E2CBF822EA
:10139000E493F8740193F9740293FA740393FB22B3
:0C13A000ECF608EDF608EEF608EFF62279
:0C13AC00ECF0A3EDF0A3EEF0A3EFF022B4
:0C13B800ECF208EDF208EEF208EFF22271
:1013C400FAE6FB0808E6F925F0F618E6CA3AF6222A
:1013D400D083D082F8E4937012740193700DA3A3A8
:1013E40093F8740193F5828883E4737402936860BC
:0613F400EFA3A3A380DFBC
:0A3AAE003098FDAF99C2987E002207
:0F3A7C00EFC394304007EF943A50028001C32209
:103A5800EFC394094005EF940E4003BF2003D380C1
:033A680001C32275
:00000001FF
